:100000000C9462000C948A000C948A000C948A0070
:100010000C948A000C948A000C948A000C948A0038
:100020000C948A000C948A000C948A000C94020CA4
:100030000C948A000C94F80B0C948A000C948A009F
:100040000C94AE0B0C948A000C947C0B0C94560B05
:100050000C948A000C948A000C948A000C948A00F8
:100060000C948A000C948A000000000024002700F1
:100070002A0000000000250028002B0000000008D6
:10008000000201000003040700000000000000005F
:1000900000000000230026002900040404040404D6
:1000A0000404020202020202030303030303010227
:1000B00004081020408001020408102001020408F6
:1000C0001020130C11241FBECFEFD8E0DEBFCDBF30
:1000D00017E0A0E0B1E0E6E6F0E302C005900D9283
:1000E000A831B107D9F728E0A8E1B7E001C01D9217
:1000F000AD30B207E1F710E0C2E6D0E004C02197CE
:10010000FE010E940617C136D107C9F70E949C0C58
:100110000C9431180C940000EFEEF7E0818991E027
:100120008927828B838B158A148A1182108212820E
:10013000168A178A108E118E17860895AF92BF9275
:10014000CF92DF92EF92FF920F931F93CF93DF93A3
:100150006C017B018B01040F151FEB015E01AE18D2
:10016000BF08C017D10759F06991D601ED91FC91F4
:100170000190F081E02DC6010995892B79F7C50121
:10018000DF91CF911F910F91FF90EF90DF90CF9073
:10019000BF90AF900895FC01538D448D252F30E022
:1001A000842F90E0821B930B541710F0CF96089584
:1001B00001970895FC01918D828D981761F0A28DB1
:1001C000AE0FBF2FB11D5D968C91928D9F5F9F7377
:1001D000928F90E008958FEF9FEF0895FC01918D2D
:1001E000828D981731F0828DE80FF11D858D90E09A
:1001F00008958FEF9FEF0895FC01918D228D892F37
:1002000090E0805C9F4F821B91098F73992708951E
:1002100084E497E00E94FC0021E0892B09F420E0AF
:10022000822F089580E090E0892B29F00E94080138
:1002300081110C9400000895FC01A48DA80FB92F22
:10024000B11DA35ABF4F2C91848D90E001968F73FE
:100250009927848FA689B7892C93A089B1898C911D
:10026000837080648C93938D848D981306C002886C
:10027000F389E02D80818F7D80830895EF92FF9236
:100280000F931F93CF93DF93EC0181E0888F9B8DB9
:100290008C8D98131AC0E889F989808185FF15C073
:1002A0009FB7F894EE89FF896083E889F989808196
:1002B0008370806480839FBF81E090E0DF91CF9165
:1002C0001F910F91FF90EF900895F62E0B8D10E087
:1002D0000F5F1F4F0F731127E02E8C8D8E110CC0F6
:1002E0000FB607FCFACFE889F989808185FFF5CF41
:1002F000CE010E941C01F1CFEB8DEC0FFD2FF11D03
:10030000E35AFF4FF0829FB7F8940B8FEA89FB897D
:1003100080818062CFCFCF93DF93EC01888D8823DB
:10032000B9F0AA89BB89E889F9898C9185FD03C058
:10033000808186FD0DC00FB607FCF7CF8C9185FF3D
:10034000F2CF808185FFEDCFCE010E941C01E9CF65
:10035000DF91CF910895833081F028F4813099F0B6
:100360008230A9F008958730A9F08830C9F0843030
:10037000B1F4809180008F7D03C0809180008F77E1
:1003800080938000089584B58F7784BD089584B5E7
:100390008F7DFBCF8091B0008F778093B000089560
:1003A0008091B0008F7DF9CFCF93DF93282F30E07D
:1003B000F901E458FF4F8491F901E255FF4FD491C0
:1003C000F901E656FF4FC491CC23A1F081110E94A0
:1003D000AB01EC2FF0E0EE0FFF1FE057FF4FA591B0
:1003E000B491EC91ED2381E090E009F480E0DF919D
:1003F000CF91089580E090E0FACF1F93CF93DF93E1
:10040000282F30E0F901E458FF4F8491F901E255BB
:10041000FF4FD491F901E656FF4FC491CC23A9F0C8
:10042000162F81110E94AB01EC2FF0E0EE0FFF1FA1
:10043000EE58FF4FA591B4918FB7F894EC9111113C
:1004400008C0D095DE23DC938FBFDF91CF911F9141
:100450000895DE2BF8CFCF93DF9390E0FC01E255B7
:10046000FF4F249186569F4FFC0184918823C9F049
:1004700090E0880F991FFC01E859FF4FA591B491B6
:10048000FC01EE58FF4FC591D49161110DC09FB78B
:10049000F8948C91209582238C938881282328833B
:1004A0009FBFDF91CF910895623051F49FB7F894C8
:1004B0003C91822F809583238C93E8812E2BEFCF64
:1004C0008FB7F894EC912E2B2C938FBFEACF1F930C
:1004D000CF93DF93182FEB0161E00E942B0220974E
:1004E00039F460E0812FDF91CF911F910C94FD01D1
:1004F000CF3FD10511F461E0F5CFE12FF0E0E458F2
:10050000FF4FE491E33031F140F4E130B1F0E230FB
:10051000E1F0C038D1057CF7E4CFE73029F1E830CD
:1005200059F1E430B1F780918000806280938000BF
:10053000D0938B00C0938A0004C084B5806884BDCA
:10054000C7BDDF91CF911F91089584B5806284BDAE
:10055000C8BDF7CF80918000806880938000D093E1
:100560008900C0938800EDCF8091B00080688093AF
:10057000B000C093B300E5CF8091B000806280935B
:10058000B000C093B400DDCF3FB7F894809122074C
:1005900090912307A0912407B091250726B5A89B29
:1005A00005C02F3F19F00196A11DB11D3FBFBA2F05
:1005B000A92F982F8827BC01CD01620F711D811DC5
:1005C000911D43E0660F771F881F991F4A95D1F749
:1005D00008958F929F92AF92BF92CF92DF92EF9247
:1005E000FF926B017C010E94C4024B015C01C114AB
:1005F000D104E104F104B9F00E94C4026819790938
:100600008A099B09683E73408105910580F321E0CA
:10061000C21AD108E108F10888EE880E83E0981E1E
:10062000A11CB11CE4CFFF90EF90DF90CF90BF9062
:10063000AF909F908F9008951F93CF93DF93D82F03
:100640000E94D40121E0892B09F420E0C0E0122FA0
:1006500061E070E080E090E00E94E9028D2F0E944E
:10066000D40121E0892B09F420E02113EFCFCF5FE3
:10067000C53069F7822FDF91CF911F9108952FB771
:10068000F89460911E0770911F0780912007909148
:1006900021072FBF089560E08DE00E94FD0160E01A
:1006A00081E10C94FD01E1E8F0E080818B7F8083A3
:1006B00080818D7F808380818E7F8083089561E03B
:1006C00089E00E942B0261E086E00E942B0261E03B
:1006D00089E00E94FD0160E086E00E94FD01F8943F
:1006E00087E286BB1092800087E0809381001092A1
:1006F0008200109285001092840078940895DC01A5
:100700002C911196ED91FC91F8948181822B81833B
:100710009281322F30959323928382E090E001976B
:10072000F1F781818323818380E190E00197F1F7E4
:1007300090817894E6E6F0E03197F1F7922381E03A
:1007400009F480E00895EF92FF920F931F93CF93E7
:10075000DF937C0108E010E0C0E0D1E0C7010E9417
:100760007F038111CD2BDD0F01501109B9F78C2FBB
:10077000DF91CF911F910F91FF90EF900895FC01B1
:1007800090810180F281E02D292F209560FF14C017
:10079000F8948281822382838181892B8183A0E1E5
:1007A000B0E01197F1F78281982B928378948AE6D2
:1007B00090E00197F1F70895F89482818223828373
:1007C0008181892B8183AEE7B0E01197F1F78281B7
:1007D000982B9283789486E090E0EBCFDF92EF92B3
:1007E000FF920F931F93CF93DF93EC01D62EE42E4D
:1007F00008E010E0FF24F39461E08D2D8F2109F4CF
:1008000060E0CE010E94BF03FF0C01501109A1F767
:10081000E11010C0F894E981FA8191818881809576
:1008200089238183E981FA81928188818095892356
:1008300082837894DF91CF911F910F91FF90EF9079
:10084000DF900895EF92FF920F931F93CF93DF9362
:100850008C017B0140E065E50E94EE03E70188E042
:10086000E80EF11C699140E0C8010E94EE03CE152C
:10087000DF05C1F7DF91CF911F910F91FF90EF90AE
:100880000895FC0101900020E9F73197AF01481B62
:10089000590BBC0184E497E00C949E00CF93DF9346
:1008A0000E944104EC018BE391E00E9441048C0F13
:1008B0009D1FDF91CF9108958EE391E00E944E0439
:1008C00061E082E00C94FD0187E491E00E944E0417
:1008D00060E082E00C94FD0181E591E00E944E040D
:1008E00070E060E083E00C94670288EA93E00E9485
:1008F0004E048DE591E00E944E0461E080E10E948B
:10090000FD0187E00E941C038111FBCF85E691E089
:100910000E944E0460E080E10C94FD0110924307B8
:10092000109242070E94750462E370E080E090E05C
:100930000E94E9020E946C041092410708958EE61D
:1009400091E00E944E048DE591E00E944E0461E02A
:1009500080E10E94FD0187E00E941C038823D9F3F7
:1009600085E691E00E944E0460E080E10C94FD0178
:1009700087E791E00E944E0483E28093B00089E013
:100980008093B10080EE8093B3008FE68093B40033
:100990006FEF70E083E00E9467026FE070E080E03C
:1009A00090E00E94E90263EC70E083E00C9467023F
:1009B00084E891E00E944E0461E082E10E942B02F3
:1009C00060E082E10E94FD0161E084E00E94FD019F
:1009D00061E070E080E090E00E94E90260E084E085
:1009E0000E94FD0162E082E10C942B020C94410410
:1009F0008F929F92AF92BF92CF92DF92EF92FF922F
:100A00000F931F93CF93DF93CDB7DEB7A1970FB6A8
:100A1000F894DEBF0FBECDBF6C01990FEE08FF0842
:100A2000F7FE41C06DE284E497E00E943E018C0134
:100A300022273327A9012C193D094E095F0919A264
:100A4000CE0181967C019AE0892E912CA12CB12CAB
:100A5000CA01B901A50194010E94E416605DF70185
:100A600062937F01211531054105510589F790E019
:100A700080E0309719F0CF010E944104800F911F50
:100A8000A1960FB6F894DEBF0FBECDBFDF91CF9118
:100A90001F910F91FF90EF90DF90CF90BF90AF909C
:100AA0009F908F900895A701960119A28E010F5D66
:100AB0001F4F8AE0C82ED12CE12CF12CCA01B901BC
:100AC000A70196010E94E416605DF80162938F0110
:100AD000211531054105510589F790E080E03097F7
:100AE00079F2CF010E944104CBCFCF93DF930E94D4
:100AF000F804EC018BE391E00E9441048C0F9D1FF0
:100B0000DF91CF910895FC0190810180F281E02D69
:100B1000F8948181292F20958223818378943DE761
:100B2000315011F180818923D9F3F8948281822395
:100B300082838181892B81837894ACEBB3E0119718
:100B4000F1F7F894818182238183A8E8B0E01197BE
:100B5000F1F78081982381E009F080E07894E0E368
:100B6000F3E03197F1F7089580E00895EF92FF9256
:100B70001F93CF93DF93EC017B01142F0E94830519
:100B8000B701CE010E94220441E06AE5CE010E9435
:100B9000EE0341E0612FCE010E94EE03612F6095CC
:100BA00041E0CE010E94EE03CE010E94A3038A3AE7
:100BB00029F4CE010E94A30391E0181390E0892F3D
:100BC000DF91CF911F91FF90EF900895262F41E084
:100BD00050E060E070E004C0440F551F661F771FAF
:100BE0002A95D2F74095BC016C5F7F4FFC01828152
:100BF00093810C94B6054F925F926F927F928F9281
:100C00009F92AF92BF92CF92DF92EF92FF921F938B
:100C1000CF93DF9300D000D000D0CDB7DEB76C010A
:100C20004B01142F61E0842F0E942B020E943F038E
:100C3000412C512C32011E821D82092C000CAA0865
:100C4000BB08A5019401260F371F481F591F298390
:100C50003A834B835C83F12CE12C0E943F03298172
:100C60003A814B815C81621773078407950768F5A9
:100C70000E943F034B015C01DC01CB018419950903
:100C8000A609B7098C159D05AE05BF0530F3809107
:100C9000E1079091E2074D815E81452B51F4612F70
:100CA0000E94E60581E090E09E838D83240135015A
:100CB000D4CFBC016C5F7F4F4FEFFC0182819381E9
:100CC0000E94B6051E821D82F1CF26960FB6F894BB
:100CD000DEBF0FBECDBFDF91CF911F91FF90EF9090
:100CE000DF90CF90BF90AF909F908F907F906F904C
:100CF0005F904F90089546E050E064EC79E088EE14
:100D000093E00E94FB0546E050E064EC79E088E562
:100D100092E00E94FB0546E050E064EC79E088EC4C
:100D200090E00E94FB0546E050E062EE74E080E552
:100D300090E00E94FB0547E050E062EE74E080E541
:100D400090E00C94FB05FF920F931F93CF93DF93DA
:100D50008C01F62EC1E0D0E068EC70E080E090E01D
:100D60000E94E9026F2D83EE97E00E94E60568EC91
:100D700070E080E090E00E94E9024FEF67EE77E0DC
:100D80008091E5079091E6070E94B60521960C1721
:100D90001D0714F7DF91CF911F910F91FF900895D8
:100DA00080913F07909140079C01285031092230E3
:100DB0003105E0F48EE891E00E94F6048FE991E0BD
:100DC0000E94F60480913F07909140070E947505AC
:100DD0004FEF67EE77E08091E5079091E6070E947C
:100DE000B60566E083EE97E00C94E6050A97C9F431
:100DF00085EC91E00E94F60486ED91E00E94F604F5
:100E000080913F07909140070E9475054FEF67EE74
:100E100077E08091E5079091E6070E94B60567E0CC
:100E2000E1CF08950F931F93CF93DF93EC018B01D4
:100E30000E948305B801CE010E94220441E065EFC3
:100E4000CE010E94EE03CE01DF91CF911F910F9151
:100E50000C94A3030F931F93CF93DF93EC018B01AB
:100E600088810E94D401892B79F189818823B9F086
:100E70008A819B81BE016C5F7F4F01151105B1F422
:100E80000E941207982F817091FD826092FD84600C
:100E900093FD8860DF91CF911F910F910895888114
:100EA0000E94D401019721F788ECF4CF013011059D
:100EB00029F40E94120782958170ECCF0E941207DC
:100EC00085FB882780F9E6CF84E6E4CF61E070E017
:100ED0000C942A07BF92CF92DF92EF92FF920F936A
:100EE0001F93CF93DF93EC016B011B861D861C863D
:100EF0001A86198618861F821E821D821C821B82FA
:100F00000E948305811105C01B861D861C8680E01A
:100F10002EC040E060EFCE010E94EE0301E0E12C24
:100F2000B12C11E0CE010E947F03F82ECE010E9469
:100F30007F0391E0F91225C0813009F03FC01134E0
:100F400018F3BB86B11002C081E08D878B818823A6
:100F5000D9F22396F601C6010896299121938E179E
:100F60009F07D9F781E0F6019081993281F6DF91F0
:100F7000CF911F910F91FF90EF90DF90CF90BF9096
:100F80000895EE2DF0E0F8120FC08B851817A0F42D
:100F9000DE01AE0FBF1F13968C91802379F4F12CE4
:100FA000193008F41C87B12EEC0FFD1F8381902FA0
:100FB0009095892383830AC08113F1CFFE01EE0D42
:100FC000F11D8381802B8383FF24F3946F2DCE0149
:100FD0000E94BF031F5F000F11F4E39401E0E7E0FC
:100FE000EE1508F09FCFABCFCF93DF93EC01BC01A0
:100FF0006C5F7F4F8A819B810E946A078983DF91A2
:10100000CF9108950E94B8040E94530368EC70E0E9
:1010100080E090E00E94E9028091E1079091E20770
:101020000E94F407882391F08091E1079091E207F4
:101030000E946607813051F48091420790914307E6
:101040000196909343078093420708958091E107AA
:101050009091E2070E94F40781113AC08091E10764
:101060009091E2070E94F407811168C064E670E085
:1010700080E090E00E94E9020E9475046CE271E059
:1010800080E090E00E94E9020E946C041092430705
:10109000109242070E94640489EE91E00E944E047F
:1010A00080E492E00E94F60483E692E00E94F60457
:1010B00080914207909143070E9475058CE00E9441
:1010C000D4010197D9F583E292E00E944E04F6CF55
:1010D0008091E1079091E2070E9466078111BECFDF
:1010E00064E670E080E090E00E94E9020E947504EE
:1010F0006CE271E080E090E00E94E9020E946C04E2
:101100000E94640489EE91E00E944E0483EF91E016
:101110000E94F60483E192E00E94F6048091420767
:10112000909143070E9475058CE00E94D4010197BD
:1011300029F483E292E00E944E04F6CF08950F93C3
:101140001F93CF93DF938C01EB010E9432158883AC
:10115000C80101960E9432158983CE01DF91CF919B
:101160001F910F910895CF93DF9300D0CDB7DEB7D5
:10117000BE016F5F7F4F84E190E00E949F088981EC
:101180009A810F900F90DF91CF9108958F929F9247
:10119000AF92BF92CF92DF92EF92FF920F931F9385
:1011A000CF93DF9390913107992309F442C0909136
:1011B00000019923F1F1182F811107C060E08DE043
:1011C0000E94FD0160E081E1A4C0C0913A07D09186
:1011D0003B070E94B308DD27FE01EE0FFF1FEF5F04
:1011E000FE4F208131812E394FEF340779F12F39AD
:1011F0003F4F11F48DE790E08038F2E09F0749F50A
:1012000086E990E0909322018093210180911C0750
:10121000811125C00E945F030E943F03609318075D
:101220007093190780931A0790931B0781E08093AE
:101230001C07DF91CF911F910F91FF90EF90DF90EE
:10124000CF90BF90AF909F908F90089580E892E0EC
:10125000D3CF8D379105D1F680E991E0D3CF0E94AD
:101260003F03C0901807D0901907E0901A07F0903C
:101270001B076C197D098E099F09683C7105810562
:101280009105B8F2E0908400F090850010921C0760
:101290000E94E9154B015C01B70190E080E00E94DB
:1012A000E9159B01AC01C501B4010E9448156B0111
:1012B0007C01609121017091220190E080E00E9408
:1012C000E9159B01AC01C701B6010E9477160E9487
:1012D000BA15675F7F4F8F4F9F4F6B3D2CEA7207A8
:1012E0008105910590F51230A9F1653671050CF470
:1012F00065CF61E08DE00E94FD0161E064CF81E196
:101300000E94D40161E0682781E10E94FD0160E054
:101310008DE0DF91CF911F910F91FF90EF90DF90C3
:10132000CF90BF90AF909F908F900C94FD01C41709
:10133000D50714F461E043CF60E04C175D07D4F2A9
:101340004C175D0709F075CF39CF123009F036CF51
:101350006EEF7FEFE0900101F0900201C701861B64
:10136000970B97FF03C091958195910903E011E0D8
:1013700050E040E0A1E0B0E0F801219131918F010F
:10138000261B370B37FF03C03195219531092817EC
:10139000390714F4C901AD011196AB30B10561F7FD
:1013A000F70136976E177F070CF4A9CF80911501CE
:1013B0009091160180589F4F8617970724F04B3065
:1013C000510509F0B4CF60E081E10E94FD018DE09C
:1013D0000E94D40161E068279BCFFF920F931F9377
:1013E000CF93DF93EC01F62E08811981C8010E948A
:1013F0003215F81621F06F2DC8010E943A15CE0162
:10140000DF91CF911F910F91FF9008951F93CF937C
:10141000DF9300D0CDB7DEB7192F24E130E03A8357
:101420002983682FCE0101960E94ED0985E190E0A5
:101430009A838983612FCE0101960E94ED090F9056
:101440000F90DF91CF911F910895CF93DF9300D03C
:10145000CDB7DEB72DE030E03A832983682FCE0187
:1014600001960E94ED090F900F90DF91CF910895A2
:101470000E945C0484E792E00E94F60481E992E015
:101480000E94F60480913F07909140070E947505E5
:1014900083E28093B00089E08093B10080EE809376
:1014A000B3008FE68093B4006FEF70E08BE00E9492
:1014B00067020E94B8040E949F0488E00E94D40141
:1014C0000197D9F762E870E08BE00E94670268E755
:1014D00070E080E090E00E94E9020E946C0462E407
:1014E00070E080E090E00E94E90261E084E00E9408
:1014F000FD0162E070E080E090E00E94E90270E0AF
:1015000060E08BE00E94670260E084E00E94FD01E1
:1015100064E170E080E090E00E94E9020E94B8047B
:1015200068EC70E080E090E00E94E9020E9475049F
:1015300068EC70E080E090E00E94E9020E946C0498
:101540000E94640489EE91E00E944E0480913F075E
:101550009091400701969093400780933F070C9429
:10156000250ACF93DF93EC010E945C048091E10790
:101570009091E2070E94F407882309F458C08091F3
:10158000E1079091E2070E946607813009F04FC0A1
:1015900020913D0730913E072F5F3F4F90914107CB
:1015A00030933E0720933D07911102C0809341077D
:1015B000C03882E0D80709F072C086E990E09093C5
:1015C0002201809321010E94B8040E949F0488E0B8
:1015D0000E94D4010197D9F768E770E080E090E0BD
:1015E0000E94E9020E945F03F89482E086BB20918A
:1015F00021013091220130938900209388001092BC
:1016000085001092840080936F0080916F0081604C
:1016100080936F0078940E946C0480913C0788232B
:10162000E1F310923C07DF91CF910C940208809176
:10163000E1079091E2070E94F40781111DC080919B
:101640003F079091400701969093400780933F0792
:101650000E94250A85EA92E00E94F604CE010E94CB
:10166000F80481E992E00E94F60480913F0790918E
:1016700040070E9475059CCF8091420790914307D7
:1016800018161906E4F68091E1079091E2070E948E
:1016900066078111D4CFDF91CF910C948E04CD37A2
:1016A000D10509F090CF80E991E089CF1F920F9288
:1016B0000FB60F9211242F933F934F935F936F9325
:1016C0007F938F939F93AF93BF93EF93FF9384E4A4
:1016D00097E00E941C01FF91EF91BF91AF919F9104
:1016E0008F917F916F915F914F913F912F910F90CB
:1016F0000FBE0F901F9018951F920F920FB60F926A
:1017000011242F938F939F93EF93FF93E0915407AE
:10171000F09155078081E0915A07F0915B0782FDB7
:101720001BC0908180915D078F5F8F7320915E0752
:10173000821741F0E0915D07F0E0EC5BF84F958F88
:1017400080935D07FF91EF919F918F912F910F9063
:101750000FBE0F901F9018958081F4CF1F920F92AB
:101760000FB60F9211242F933F938F939F93AF93B4
:10177000BF9380911E0790911F07A0912007B09101
:10178000210730911D0726E0230F2D3758F50296CB
:10179000A11DB11D20931D0780931E0790931F0765
:1017A000A0932007B09321078091220790912307EF
:1017B000A0912407B09125070196A11DB11D80932A
:1017C000220790932307A0932407B0932507BF9186
:1017D000AF919F918F913F912F910F900FBE0F90DE
:1017E0001F90189529E8230F0396A11DB11DD2CF94
:1017F0001F920F920FB60F9211240F900FBE0F90F1
:101800001F9018951F920F920FB60F9211248F936D
:1018100010926F0081E080933C078F910F900FBE74
:101820000F901F901895CF93DF93E4E4F7E01382B5
:10183000128288EE93E0A0E0B0E084839583A683D3
:10184000B7832DE231E03183208325EC30E035870A
:10185000248724EC30E03787268720EC30E0318B7A
:10186000208B21EC30E0338B228B22EC30E0358B67
:10187000248B26EC30E0378B268B118E128E138E44
:10188000148EEFEEF7E02CE0208B21E0218B128A02
:10189000138A158A148A118210821282168A178A74
:1018A000108E118E42E350E060E070E04383548379
:1018B000658376834AEF50E060E070E047835087AD
:1018C0006187728783879487A587B687178660E0CC
:1018D0008CE00E942B028EE090E00E940C17EC013D
:1018E00060E082E10E942B02E0ECF0E0E491E8830A
:1018F000ECEAF0E0E491F0E0EE0FFF1FE057FF4F5D
:10190000859194919A8389831B861D861C861A86ED
:10191000198618861F821E821D821C821B82E3EE9E
:10192000F7E0D383C28382E18083F093E207E09300
:10193000E107DF91CF910895CF93DF9300D0CDB72A
:10194000DEB7789484B5826084BD84B5816084BD3F
:1019500085B5826085BD85B5816085BD80916E004D
:10196000816080936E00109281008091810082607E
:1019700080938100809181008160809381008091BB
:1019800080008160809380008091B10084608093AA
:10199000B1008091B00081608093B00080917A00A6
:1019A000846080937A0080917A00826080937A00CC
:1019B00080917A008E7F80937A0080917A0080688F
:1019C00080937A001092C100E0915407F09155077E
:1019D00082E08083E0915007F09151071082E091FE
:1019E0005207F091530787E6808310925C07E091DD
:1019F0005807F091590786E08083E0915607F091EF
:101A00005707808180618083E0915607F0915707E6
:101A1000808188608083E0915607F091570780812C
:101A200080688083E0915607F091570780818F7D11
:101A300080838CEC92E00E944E0486E193E00E9449
:101A40004E048AE393E00E944E0467EE77E08091B3
:101A5000E5079091E6070E946A078093E40780916A
:101A6000E5079091E6070E94830540E066E98091D2
:101A7000E5079091E6070E94EE0307EE17E09FEE60
:101A8000E92E97E0F92EF80161918F0140E08091F5
:101A9000E5079091E6070E94EE03E016F10699F73C
:101AA00040E06CE38091E5079091E6070E94EE0329
:101AB0008091E5079091E6070E94830570E060E061
:101AC00083EE97E00E942A0790E080E00E943215A2
:101AD000082F10E081E090E00E9432150F3F1105C1
:101AE00011F48F3F71F18AE593E00E94F60482E7DA
:101AF00093E00E94F604C8010E94F8048FE793E087
:101B00000E94F604C8010E9475051A8219826FEFBF
:101B1000CE0101960E94ED0981E090E09A838983CD
:101B20006FEFCE0101960E94ED0980E892E00E94DD
:101B3000060A8CE893E00E94F6040E94B3080E9413
:101B400075058FE090E0A0E0B0E08093F2079093FD
:101B5000F307A093F407B093F5078AEF90E0A0E0B5
:101B6000B0E08093F6079093F707A093F807B0933F
:101B7000F9078CE291E0A0E0B0E08093FA0790933F
:101B8000FB07A093FC07B093FD0761E083E00E9490
:101B90002B0261E08BE00E942B0261E084E00E9456
:101BA0002B0261E080E10E942B0261E08DE00E9447
:101BB0002B0261E081E10E942B0260E083E00E9441
:101BC000FD0160E08BE00E94FD0160E084E00E9486
:101BD000FD0160E080E10E94FD0160E08DE00E9477
:101BE000FD0160E081E10E94FD0162E082E10E946E
:101BF0002B0262E088E00E942B0262E087E00E94F4
:101C00002B0260E08FE00E942B0260E08EE00E94D9
:101C10002B0261E082E00E942B0260E082E00E94E1
:101C2000FD0160E08CE00E942B0260E08AE00E94EF
:101C30002B0260E083E10E942B0260E085E10E94BC
:101C40002B020E94D00680912607909127070196CB
:101C5000909327078093260787E00E94D401892B61
:101C600031F00E9475048CE993E00E944E0483EBEE
:101C700093E00E94F60480912607909127070E9426
:101C8000750580E0E82E80E0F82EDD24D39470E026
:101C900060E083EE97E00E942A07082F10E010937F
:101CA0003B0700933A0783EE97E00E946607982E61
:101CB00081E0911001C080E08093390762E070E01C
:101CC00083EE97E00E942A07882E81E0811001C0F0
:101CD00080E0809338078091360790913707909382
:101CE00035078093340780913207909133079093A2
:101CF00037078093360780913107811177C283EED1
:101D000097E00E94F407A82EB12CB0923307A0925E
:101D10003207BE016F5F7F4F8DE090E00E949F0809
:101D200029813A8133953093400720933F07AB28B0
:101D300009F47CC381103DC091103BC0F801EE0F47
:101D4000FF1FEF5FFE4F8081918100E812E08E3926
:101D5000FFEF9F0741F00DE710E08F399F4F19F01B
:101D60000E94B3088C0180912A0790912B0780175D
:101D70009107F9F010932B0700932A0781EC93E069
:101D80000E94F60480912F07909130070E947505FC
:101D900085E194E00E94F604C8010E94F80483E201
:101DA00094E00E94F60480912A0790912B070E94EC
:101DB00075058FE00E94D401019709F043C08EE0C1
:101DC0000E94D401892BF1F51092400710923F0731
:101DD00090E080E00E94250A0E94D00680913207A0
:101DE00090913307892B29F066E083EE97E00E94FB
:101DF000E60588E794E00E944E040E94B8040E9421
:101E00009F040E9475040E946C0480913207909197
:101E10003307892B49F04FEF67EE77E08091E507B4
:101E20009091E6070E94B60587E894E00E944E0470
:101E300080EA94E00E94F60480913F079091400769
:101E40000E9475058FE00E94D401892B29F58EE050
:101E50000E94D40181309105F9F420913F0730911F
:101E6000400728303105C4F0209128073091290718
:101E7000232B91F4909329078093280784EC94E016
:101E80000E94F60486EE94E00E94F60480913F07DB
:101E9000909140070E94750580913A0790913B0709
:101EA00040970CF02BC1809032079090330783EE5F
:101EB00097E00E94F407882309F420C18CE00E9477
:101EC000D401019709F41AC18AE00E94D401019754
:101ED00009F414C170E060E083EE97E00E942A07E5
:101EE000082F10E010933B0700933A0783EE97E02A
:101EF0000E946607B82E81E0B11001C080E0809397
:101F0000390762E070E083EE97E00E942A0791E0D3
:101F1000811101C090E090933807892809F4C2C26A
:101F200098012E5031092230310508F05EC0882317
:101F300009F45BC0BB2009F458C00E94B308909319
:101F4000300780932F07F801EE0FFF1FEF5FFE4F62
:101F50002081318100E812E02F393F4F11F40DE765
:101F600010E08017910709F440C088E095E00E94D6
:101F7000F60483E295E00E94F60480912F07909189
:101F800030070E94750586E595E00E94F604C801B9
:101F90000E94F8048FE695E00E944E0410932B07F0
:101FA00000932A07C8010E94060A8EE795E00E9466
:101FB000F6040E944B0380912A0790912B078D37DE
:101FC000910509F066C267E070E081E090E00E9450
:101FD000A30688E995E00E94F60480912A07909173
:101FE0002B070E9475050E94D00600913A071091B8
:101FF0003B078091380790912E079017110609F43E
:1020000076C2882321F080913907811135C00E9462
:102010004B03000F111FF801EF5FFE4F808191818C
:102020008E399F4F51F466E070E082E090E00E94AC
:10203000A30684ED95E00E944E04E0913A07F091EA
:102040003B07EE0FFF1FEF5FFE4F808191818F39BD
:102050009F4F51F466E070E081E090E00E94A3069B
:102060008AEF95E00E944E0400913A0710913B07D9
:1020700080913807882321F080913907811117C298
:102080000E944B0368EC70E080E090E00E94E9025F
:10209000000F111FF801EF5FFE4F808191818C3995
:1020A0009F4F61F466E070E081E090E00E94A3063B
:1020B00067E070E081E090E00E94A3060F5F1E4F92
:1020C000F801808191818D399F4F61F467E070E064
:1020D00081E090E00E94A30666E070E081E090E07D
:1020E0000E94A30668EC70E080E090E00E94E902A4
:1020F0000E94D00680913A0780932E078091320784
:1021000090913307892B09F471C080913607909123
:102110003707892B09F06AC0809134079091350701
:10212000892B09F063C080E296E00E944E0470E0C3
:1021300060E083EE97E00E942A0790E090933B07CF
:1021400080933A0783EE97E00E946607182F81E09C
:10215000111101C080E08093390762E070E083EEE6
:1021600097E00E942A0791E0811101C090E09093CE
:102170003807882311F0111139C089E396E00E94D5
:102180004E040E94B3088C019093300780932F0770
:102190000E944B0366E070E082E090E0003822E0AD
:1021A000120741F00D37110509F0B5C166E070E086
:1021B00081E090E00E94A30664EF71E080E090E08F
:1021C0000E94E9028EE796E00E94F60480912F07B4
:1021D000909130070E9475058091320790913307E6
:1021E00090933707809336070E94D0068AE00E94BA
:1021F000D401019741F480913107811104C00E94FC
:102200005C04D09231078FE00E94D401892B09F041
:1022100088C08EE00E94D401892B09F082C00E9400
:102220003F034B015C018091FF070E94D4019C0198
:1022300081E02115310509F480E080930108809147
:102240000008811106C091E0232B09F090E09093E3
:1022500001088091010890910208891741F080924D
:10226000050890920608A0920708B09208084091CD
:102270000508509106086091070870910808841AB3
:10228000950AA60AB70A4091F2075091F3076091A8
:10229000F4077091F507481559056A057B0594F414
:1022A0002091F107281771F08093F107882351F0EE
:1022B00020910308309104082F5F3F4F30930408AA
:1022C00020930308891302C01092FE07809302082E
:1022D0008091F107882329F18091FA079091FB07FB
:1022E000A091FC07B091FD0788159905AA05BB05CB
:1022F000C4F4809103089091040822273327281BF7
:10230000390B3093F0072093EF07109204081092D6
:102310000308892B31F0D092FE0780E996E00E94F5
:102320004E04E0913A07F0913B07EE0FFF1FEF5F7D
:10233000FE4F808191818F399F4F61F581E00E942E
:10234000C6088091EF079091F0078F3F980719F02A
:1023500018161906FCF480E00E94C6088091380720
:10236000811106C08091EF079091F007029751F418
:1023700060E081E10E94FD0160E08DE00E94FD01CE
:102380000E947B060E948C008DE790E00E94B10ABB
:102390000E94D00680913A0790913B07883C9105B6
:1023A00029F583EE97E00E94F4078111C2C00E94D4
:1023B000B3088C019093300780932F0781E00E942F
:1023C000C6088091EF079091F0078F3F980721F0A2
:1023D0008130910509F0AAC080E00E94C6081092E1
:1023E0003907C8010E94B10A0E948C0080913A0707
:1023F00090913B078436910509F09BC083EE97E0EE
:102400000E94F407811195C08091EF079091F00729
:102410008F3F980721F00197029708F08AC00E9429
:10242000380A0E948C000E94D00683C00E94B30824
:102430009093300780932F0720912A0730912B0724
:102440008217930709F4B5CC80E394E00E94F60468
:1024500080912F07909130070E94F80483E294E066
:102460000E94F60480912A0790912B070E9475051F
:1024700080912F079091300790932B0780932A0724
:102480008CEE93E00E94F60480912F079091300724
:1024900084CC8038924009F09CCD67E070E082E007
:1024A00090E095CD85EA95E00E944E049ECD000F08
:1024B000111FF801EF5FFE4F808191818C399F4F92
:1024C00031F466E070E081E090E00E94A3060F5FC7
:1024D0001E4FF801808191818D399F4F09F008CE00
:1024E00067E070E081E090E00E94A30601CE909149
:1024F000390720912D0730E09217130639F4209107
:102500002C0730E08217130609F4F8CD90932D07BD
:1025100080932C07F3CD8EE696E00E944E0467E090
:1025200070E085E090E00E94A3064CCE029709F48B
:1025300053CFE0913A07F0913B07EE0FFF1FEF5F9B
:10254000FE4F808191818D399F4F41F583EE97E059
:102550000E94F407882311F1809138078823F1F055
:10256000809139078823D1F0809100018823B1F050
:10257000109200010E944B0361E08DE00E94FD017A
:1025800064E670E080E090E00E94E90260E08DE0A7
:102590000E94FD018BE996E00E944E048CE00E94AF
:1025A000D401019709F092C0E0913A07F0913B07FE
:1025B000EE0FFF1FEF5FFE4F808191818D399F4F9E
:1025C00009F084C08DEA96E00E944E040E945303F5
:1025D0000E944B030E948C000E945C0483EB96E0F7
:1025E0000E94F60481E992E00E94F60480913F0780
:1025F000909140070E9475050E94B8040E949F04B4
:1026000088E00E94D4010197D9F768E270E080E089
:1026100090E00E94E90262E070E08091E107909111
:10262000E2070E942A07813029F46FEF70E08BE007
:102630000E9467020E946C0462E070E08091E107F2
:102640009091E2070E942A07813029F462E870E045
:102650008BE00E9467028CE00E94D4010197D9F3BD
:102660000E94D8040E94B80462E070E08091E10703
:102670009091E2070E942A07813029F470E060E01F
:102680008BE00E94670268EC70E080E090E00E94BE
:10269000E9020E94750468EC70E080E090E00E941E
:1026A000E9020E946C040E94640489EE91E00E9499
:1026B0004E0480913F079091400701969093400708
:1026C00080933F070E94250A0E94D006E0913A07B6
:1026D000F0913B07EE0FFF1FEF5FFE4F808191816E
:1026E0008C399F4F41F583EE97E00E94F4078823D1
:1026F00011F1809138078823F1F080913907882300
:10270000D1F080910001811116C0D09200010E9489
:102710004B0361E081E10E94FD0164E670E080E02E
:1027200090E00E94E90260E081E10E94FD0187ECF7
:1027300096E00E944E048CE00E94D401019709F0BB
:102740006FC0E0913A07F0913B07EE0FFF1FEF5F7C
:10275000FE4F808191818C399F4F09F061C088EDD7
:1027600096E00E944E040E9453030E944B030E9475
:102770008C000E945C048EED96E00E94F60481E9D4
:1027800092E00E94F60480913F07909140070E94DA
:1027900075050E94B8040E949F0488E00E941C03F3
:1027A0008823D9F368E270E080E090E00E94E902BB
:1027B0008AE00E94D4010197D9F30E946C048CE056
:1027C0000E94D401892BD9F38CE00E94D401019797
:1027D00021F40E94D8040E94B80468EC70E080E004
:1027E00090E00E94E9020E94750468EC70E080E0CD
:1027F00090E00E94E9020E946C040E94640489EE49
:1028000091E00E944E0480913F079091400701960D
:102810009093400780933F070E94250A0E94D006AC
:1028200000913A0710913B070C30110508F0C2C027
:1028300082E00E94C6088091EF079091F0078F3FD9
:10284000980721F0181619060CF0B4C080E00E9419
:10285000C60880913807811106C08091EF079091DA
:10286000F007029751F460E081E10E94FD0160E011
:102870008DE00E94FD010E947B060E948C000E9458
:102880005C048091E1079091E2070E94F40788239D
:1028900009F45BC08091E1079091E2070E9466070E
:1028A000813009F052C020913D0730913E072F5FE3
:1028B0003F4F9091410730933E0720933D07911180
:1028C00002C0809341070E94B80464E670E080E093
:1028D00090E00E94E9020E949F0488E00E94D401D7
:1028E0000197D9F768E770E080E090E00E94E90284
:1028F000F801EE0FFF1FEF5FFE4F808091800630E2
:1029000011050CF0ABC089E0880E911C0E946C048C
:102910000E943F03092C000CAA08BB08860E971ED4
:10292000A81EB91E0E943F0386169706A806B90680
:10293000C8F70330110534F08BE691E00E944E0495
:102940000E94D8040E94020833C08091E107909150
:10295000E2070E94F40781111AC080913F0790910D
:10296000400701969093400780933F070E94250AF5
:1029700084EF96E00E94F60481E992E00E94F6045A
:1029800080913F07909140070E9475059CCF8091F0
:1029900042079091430718161906FCF68091E1074B
:1029A0009091E2070E9466078111D7CF0E948E04A2
:1029B0000E94D006E0913A07F0913B07EE0FFF1F0F
:1029C000EF5FFE4F808191818E399F4F61F581E0ED
:1029D0000E94C6088091EF079091F0078F3F9807FB
:1029E00019F018161906FCF480E00E94C6088091C0
:1029F0003807811106C08091EF079091F007029788
:102A000051F460E081E10E94FD0160E08DE00E94F0
:102A1000FD010E947B060E948C0080E892E00E94EB
:102A2000B10A0E94D0068AE00E94D401892B51F499
:102A300080913107882331F00E946404109231079D
:102A40000E944B03E114F10409F421C90E9408011A
:102A5000882309F41CC90E94000019C9E8E08E0E01
:102A6000911C54CFF999FECF92BD81BDF89A992758
:102A700080B50895262FF999FECF1FBA92BD81BD6A
:102A800020BD0FB6F894FA9AF99A0FBE01960895F0
:102A90000E945C150C943D160E94361658F00E9458
:102AA0002F1640F029F45F3F29F00C94261651119F
:102AB0000C9471160C942C160E944E1668F39923F0
:102AC000B1F3552391F3951B550BBB27AA2762172A
:102AD0007307840738F09F5F5F4F220F331F441F37
:102AE000AA1FA9F335D00E2E3AF0E0E832D091506B
:102AF0005040E695001CCAF72BD0FE2F29D0660F58
:102B0000771F881FBB1F261737074807AB07B0E89A
:102B100009F0BB0B802DBF01FF2793585F4F3AF0A0
:102B20009E3F510578F00C9426160C9471165F3F69
:102B3000E4F3983ED4F3869577956795B795F79526
:102B40009F5FC9F7880F911D9695879597F908950E
:102B5000E1E0660F771F881FBB1F621773078407AA
:102B6000BA0720F0621B730B840BBA0BEE1F88F7B9
:102B7000E09508950E94561688F09F5798F0B92F57
:102B80009927B751B0F0E1F0660F771F881F991FA2
:102B90001AF0BA95C9F714C0B13091F00E947016BE
:102BA000B1E008950C947016672F782F8827B85FCE
:102BB00039F0B93FCCF3869577956795B395D9F7FA
:102BC0003EF490958095709561957F4F8F4F9F4F04
:102BD0000895E89409C097FB3EF490958095709510
:102BE00061957F4F8F4F9F4F9923A9F0F92F96E959
:102BF000BB279395F695879577956795B795F111CE
:102C0000F8CFFAF4BB0F11F460FF1BC06F5F7F4F6A
:102C10008F4F9F4F16C0882311F096E911C077237C
:102C200021F09EE8872F762F05C0662371F096E885
:102C3000862F70E060E02AF09A95660F771F881F54
:102C4000DAF7880F9695879597F9089597F99F6712
:102C500080E870E060E008959FEF80EC0895002424
:102C60000A941616170618060906089500240A94F1
:102C700012161306140605060895092E0394000C77
:102C800011F4882352F0BB0F40F4BF2B11F460FF06
:102C900004C06F5F7F4F8F4F9F4F089557FD90582F
:102CA000440F551F59F05F3F71F04795880F97FB10
:102CB000991F61F09F3F79F08795089512161306CA
:102CC0001406551FF2CF4695F1DF08C016161706F9
:102CD0001806991FF1CF869571056105089408952E
:102CE000E894BB2766277727CB0197F908950E94C0
:102CF0008A160C943D160E942F1638F00E94361644
:102D000020F0952311F00C9426160C942C16112407
:102D10000C9471160E944E1670F3959FC1F3950F97
:102D200050E0551F629FF001729FBB27F00DB11D4F
:102D3000639FAA27F00DB11DAA1F649F6627B00DDF
:102D4000A11D661F829F2227B00DA11D621F739FC8
:102D5000B00DA11D621F839FA00D611D221F749FD6
:102D60003327A00D611D231F849F600D211D822F1D
:102D7000762F6A2F11249F5750409AF0F1F0882344
:102D80004AF0EE0FFF1FBB1F661F771F881F915071
:102D90005040A9F79E3F510580F00C9426160C94E4
:102DA00071165F3FE4F3983ED4F386957795679567
:102DB000B795F795E7959F5FC1F7FE2B880F911D9B
:102DC0009695879597F90895A1E21A2EAA1BBB1B29
:102DD000FD010DC0AA1FBB1FEE1FFF1FA217B307E7
:102DE000E407F50720F0A21BB30BE40BF50B661FFD
:102DF000771F881F991F1A9469F7609570958095C1
:102E000090959B01AC01BD01CF010895EE0FFF1F0E
:102E10000590F491E02D09940F931F93CF93DF93C6
:102E20008230910510F482E090E0E0910B08F0917F
:102E30000C0830E020E0B0E0A0E0309799F42115D4
:102E4000310509F44AC0281B390B24303105D8F567
:102E50008A819B816115710589F1FB0193838283CE
:102E6000FE0111C040815181028113814817590729
:102E7000E0F04817590799F4109761F012960C93F7
:102E8000129713961C933296CF01DF91CF911F9129
:102E90000F91089500930B0810930C08F4CF21159F
:102EA000310551F04217530738F0A901DB019A01AF
:102EB000BD01DF01F801C1CFEF01F9CF90930C08FC
:102EC00080930B08CDCFFE01E20FF31F8193919306
:102ED0002250310939832883D7CF209109083091B6
:102EE0000A08232B41F420912501309126013093CB
:102EF0000A0820930908209123013091240121150B
:102F0000310541F42DB73EB740912701509128017A
:102F1000241B350BE0910908F0910A08E217F3072A
:102F2000A0F42E1B3F0B2817390778F0AC014E5F39
:102F30005F4F2417350748F04E0F5F1F50930A0864
:102F400040930908819391939FCFF0E0E0E09CCFFC
:102F5000CF93DF930097E9F0FC013297138212823E
:102F6000A0910B08B0910C08ED0130E020E0109723
:102F7000A1F420813181820F931F209109083091A3
:102F80000A082817390709F061C0F0930A08E0938E
:102F90000908DF91CF910895EA01CE17DF07E8F520
:102FA0004A815B819E0141155105B1F7E901FB831F
:102FB000EA8349915991C40FD51FEC17FD0761F4BD
:102FC000808191810296840F951FE90199838883FE
:102FD000828193819B838A83F0E0E0E012968D9159
:102FE0009C9113970097B9F52D913C911197CD01C4
:102FF0000296820F931F2091090830910A08281722
:10300000390739F6309751F510920C0810920B08D9
:10301000B0930A08A0930908BCCFD383C283408130
:103020005181840F951FC817D90761F44E5F5F4F18
:1030300088819981480F591F518340838A819B81E0
:10304000938382832115310509F0B0CFF0930C08EA
:10305000E0930B089ECFFD01DC01C0CF13821282EA
:06306000D7CFF894FFCF6A
:103066000110001400170019001E0023002D003760
:1030760000A6002E0158024C049CFF9DFF9EFF9F58
:10308600FF900100000D088000000000003E019E38
:1030960000CB008B01FC00DA00EE000D0A00466F43
:1030A600637573206F6E00466F637573206F666677
:1030B60000736875747465724F50454E006D6F7479
:1030C6006F724F4E006D6F746F724F4646006D699A
:1030D60072726F7255500073687574746572434CE2
:1030E6004F53450046617374466C617368005477AC
:1030F6006F204672616D6573206C65667421002CC5
:103106002063757272656E7450696374757265209A
:103116006F6E2054776F204672616D6573206C6503
:1031260066743A200054656E204672616D657320A0
:1031360073686F7421002C2063757272656E74500B
:103146006963747572653A20002121556E666F6356
:103156007573004578706F737572652046696E6980
:103166007368202D20446F6E676C65204D6F646513
:103176002C20006D7873686F747320636F756E749E
:103186003A20005761697420666F722053312074AB
:103196006F20676F206869676820616761696E00E4
:1031A6004578706F737572652046696E697368201D
:1031B6002D204E6F20446F6E676C65204D6F6465E1
:1031C6002C20004D582073686F747320636F756EE2
:1031D600743A200074616B652043616D65726120ED
:1031E600466C61736862617220706963747572659A
:1031F600002C2063757272656E7420506963747555
:1032060072653A200074616B652061207069637491
:10321600757265206F6E204175746F204D6F646501
:1032260020776974682049534F3A200057656C63CC
:103236006F6D6520746F206F70656E535837302040
:1032460056657273696F6E3A2031345F31305F3282
:103256003032305F534F4E41525F4642575F5443C0
:1032660053333230302047544420616E6420554435
:103276004F4E474C45004D61676963204E756D6240
:1032860065723A20413130303D343030207C204167
:10329600363030203D20313530007363616C696E05
:1032A60067203D2031303025207C2066696C7465AE
:1032B60072203D20636C65617200496E69746961B4
:1032C6006C697A696E6720454550524F4D2E2E2EF9
:1032D6002E00696E69744A505B305D203D2000699E
:1032E6006E69744A505B315D203D200049534F2082
:1032F600696E20454550524F4D3A2000496E69741B
:1033060069616C697A653A206D6972726F72444FB1
:10331600574E00496E697A69616C697A65643A202C
:1033260000636865636B49534F4368616E67652840
:10333600292046756E6374696F6E3A2049534F2093
:10334600686173206368616E6765642C206D616BCC
:10335600652061637469766549534F203D20736526
:103366006C656374656449534F2C2073617665649C
:1033760049534F3A0073656C656374656449534FEE
:103386003A20002061637469766549534F3A2000FC
:10339600636865636B49534F4368616E6765204692
:1033A600756E6374696F6E202D206E6F446F6E6745
:1033B6006C652064657465637465643A2049534F8F
:1033C60020686173206368616E6765642C20736191
:1033D60076656449534F3A006461726B736C696435
:1033E60065454A454354005354415445313A2045B6
:1033F6004A454354204441524B20534C49444500CE
:1034060063757272656E7450696374757265206F48
:103416006E204461726B736C69646520656A6563CE
:10342600743A20005354415445323A205041434B9C
:1034360020495320454D505459202D2053392043BF
:103446006C6F736564002C2043757272656E742010
:1034560050696374757265206F6E20456D7074795E
:10346600205061636B3A20005361766549534F43A0
:1034760068616E676528292046756E6374696F6E8C
:103486003A200049534F20686173206368616E6774
:1034960065642C2070726576696F7320736176653A
:1034A600642049534F202866726F6D20454550525F
:1034B6004F4D293A2000536176696E67206E657715
:1034C6002073656C65637465642049534F20002042
:1034D600746F2074686520454550524F4D00426C0C
:1034E600696E6B20524544206F6E2049534F20630E
:1034F60068616E67653A2000616374697665204984
:10350600534F3A2000736176656449534F436861AF
:103516006E676528292046756E6374696F6E202D67
:10352600206E6F20446F6E676C65206465746563FA
:1035360074656400426C696E6B20322074696D6537
:103546007320477265656E206F6E204175746F3605
:1035560030302073656C65637400426C696E6B2055
:10356600312074696D657320477265656E206F6ED4
:10357600204175746F3130302073656C656374005B
:10358600446F6E676C6520696E73657274696F6EE1
:103596002068617070656E6400426C696E6B2066AF
:1035A6006F72207468652073617665642049534F95
:1035B6002073657474696E67206F6E20446F6E6742
:1035C6006C6520696E73657274696F6E2E004E6F3E
:1035D6002049534F2053656C656374656400454507
:1035E60050524F4D20524541442049534F3A2000F6
:1035F6004C6F6E6720436C69636B004C6967687437
:103606006D65746572206973206F666600504F534E
:1036160020420074616B652042204D6F6465205026
:10362600696374757265004C696768746D65746565
:1036360072206973206F6E00504F532054007461DE
:103646006B652054204D6F646520706963747572D4
:10365600653A200074616B652073696E676C65203E
:1036660050696374757265206F6E20204D616E75AA
:08367600616C204D6F646500DA
:107800000C94343C0C94513C0C94513C0C94513CE1
:107810000C94513C0C94513C0C94513C0C94513CB4
:107820000C94513C0C94513C0C94513C0C94513CA4
:107830000C94513C0C94513C0C94513C0C94513C94
:107840000C94513C0C94513C0C94513C0C94513C84
:107850000C94513C0C94513C0C94513C0C94513C74
:107860000C94513C0C94513C11241FBECFEFD8E036
:10787000DEBFCDBF11E0A0E0B1E0EAE8FFE702C063
:1078800005900D92A230B107D9F712E0A2E0B1E065
:1078900001C01D92AD30B107E1F70E942D3D0C945F
:1078A000C33F0C94003C982F95959595959595958B
:1078B000905D8F708A307CF0282F295A8091C0000B
:1078C00085FFFCCF9093C6008091C00085FFFCCF60
:1078D0002093C6000895282F205DF0CF982F809127
:1078E000C00085FFFCCF9093C6000895EF92FF92F1
:1078F0000F931F93EE24FF2487018091C00087FD22
:1079000017C00894E11CF11C011D111D81E2E8164D
:1079100081EAF80687E0080780E0180770F3E09135
:107920000401F091050109958091C00087FFE9CF1E
:107930008091C6001F910F91FF90EF9008950E94D3
:10794000763C982F8091C00085FFFCCF9093C600B5
:1079500091362CF490330CF09053892F089597555D
:10796000892F08951F930E949F3C182F0E949F3CCF
:107970001295107F810F1F9108951F93182F882350
:1079800021F00E94763C1150E1F71F9108951F935A
:10799000182F0E94763C803249F0809103018F5F5E
:1079A000809303018530C1F01F9108958091C0003C
:1079B00085FFFCCF84E18093C6008091C00085FFE5
:1079C000FCCF1093C6008091C00085FFFCCF80E102
:1079D0008093C6001F910895E0910401F091050184
:1079E00009951F9108950E94763C803241F0809164
:1079F00003018F5F80930301853081F008958091AA
:107A0000C00085FFFCCF84E18093C6008091C00058
:107A100085FFFCCF80E18093C6000895E0910401CA
:107A2000F09105010995089548EC50E08823A1F0F4
:107A30002D9A28EE33E0FA013197F1F721503040CA
:107A4000D1F72D9828EE33E0FA013197F1F7215064
:107A50003040D1F7815061F708953F924F925F9285
:107A60006F927F928F929F92AF92BF92CF92DF924E
:107A7000EF92FF920F931F93CF93DF93000082E06A
:107A80008093C00080E18093C4001092C50088E11B
:107A90008093C10086E08093C2005098589A259A3E
:107AA00081E00E94143D24E1F22E9EE1E92E85E959
:107AB000D82E0FE0C02E10E1B12EAA24A394B1E479
:107AC0009B2EA6E58A2EF2E57F2EE0E26E2E79E46B
:107AD000572E63E5462E50E5352E0E94763C8033C6
:107AE000B1F18133B9F1803409F46FC0813409F404
:107AF00076C0823409F485C0853409F488C08035A5
:107B000031F1823521F1813511F1853509F485C0D6
:107B1000863509F48DC0843609F496C0843709F49B
:107B200003C1853709F472C1863709F466C08091B4
:107B300003018F5F80930301853079F6E0910401A2
:107B4000F091050109950E94763C803351F60E9420
:107B5000F33CC3CF0E94763C803249F78091C0004D
:107B600085FFFCCFF092C6008091C00085FFFCCF5E
:107B70009092C6008091C00085FFFCCF8092C60025
:107B80008091C00085FFFCCF7092C6008091C0003C
:107B900085FFFCCF6092C6008091C00085FFFCCFBE
:107BA0005092C6008091C00085FFFCCF4092C60075
:107BB0008091C00085FFFCCF3092C6008091C0004C
:107BC00085FFFCCFB092C60088CF0E94763C8638F5
:107BD00008F4BDCF0E94763C0E94F33C7ECF0E9409
:107BE000763C803809F49CC0813809F40BC1823896
:107BF00009F430C1883909F48FC080E00E94C73C85
:107C00006CCF84E10E94BD3C0E94F33C66CF85E0CE
:107C10000E94BD3C0E94F33C60CF0E94763C809362
:107C200006010E94763C809307010E94F33C55CFE9
:107C30000E94763C803309F411C183E00E94BD3C70
:107C400080E00E94C73C49CF0E94763C80930902A5
:107C50000E94763C8093080280910C028E7F809374
:107C60000C020E94763C853409F409C18091080217
:107C700090910902892B89F000E010E00E94763C87
:107C8000F801E85FFE4F80830F5F1F4F809108026D
:107C9000909109020817190788F30E94763C8032F8
:107CA00009F045CF80910C0280FFF5C0609106017C
:107CB00070910701660F771F7093070160930601AB
:107CC000A0910802B09109021097C9F0E8E0F1E034
:107CD0009B01AD014E0F5F1FF999FECF32BD21BD53
:107CE000819180BDFA9AF99A2F5F3F4FE417F5070B
:107CF00099F76A0F7B1F70930701609306018091CB
:107D0000C00085FFFCCFF092C6008091C00085FFC7
:107D1000FCCFB092C600E1CE83E00E94C73CDDCE2E
:107D200082E00E94C73CD9CE0E94763C8093090233
:107D30000E94763C80930802809106019091070191
:107D4000880F991F90930701809306010E94763C4B
:107D5000853409F49AC080910C028E7F80930C02C6
:107D60000E94763C803209F0B8CE8091C00085FF39
:107D7000FCCFF092C600A0910802B09109021097C2
:107D8000C1F180910C02082F0170182F1695117007
:107D9000E0910601F0910701AF014F5F5F4FBA011B
:107DA00020E030E00023B1F4112339F49491809164
:107DB000C00085FFFCCF9093C6002F5F3F4FCB01E3
:107DC0000196FA012A173B0780F4BC014F5F5F4F11
:107DD000002351F3F999FECFF2BDE1BDF89A90B5B9
:107DE0008091C00085FFFCCFE6CF709307016093C0
:107DF00006018091C00085FDE5CE8091C00085FF21
:107E0000F8CFE0CE81E00E94C73C67CE0E94763C6E
:107E1000803209F08CCE8091C00085FFFCCFF092BB
:107E2000C6008091C00085FFFCCFE092C600809123
:107E3000C00085FFFCCFD092C6008091C00085FFB6
:107E4000FCCFC092C6008091C00085FFFCCFB092ED
:107E5000C60043CE80E10E94C73C3FCE0E94763CE4
:107E60000E94763C182F0E94763C112309F483C0AF
:107E7000113009F484C08FE00E94C73C2ECE80915F
:107E80000C02816080930C02F1CE80910C02816023
:107E900080930C0265CF809107018823880F880B9F
:107EA0008A2180930B028091060190910701880F2F
:107EB000991F90930701809306018091080280FF2B
:107EC00009C08091080290910902019690930902DD
:107ED00080930802F894F999FECF1127E0910601EA
:107EE000F0910701C8E0D1E0809108029091090269
:107EF000103091F40091570001700130D9F303E084
:107F000000935700E8950091570001700130D9F3B4
:107F100001E100935700E8950990199000915700EE
:107F200001700130D9F301E000935700E8951395F3
:107F3000103498F011270091570001700130D9F3E7
:107F400005E000935700E89500915700017001305B
:107F5000D9F301E100935700E8953296029709F0B2
:107F6000C7CF103011F00296E5CF11248091C000E8
:107F700085FFC5CEC8CE8EE10E94C73CAECD85E957
:0A7F80000E94C73CAACDF894FFCF81
:027F8A00800075
:040000030000780081
:00000001FF
