:020000040000FA
:100000000C9464000C948C000C948C000C948C0068
:100010000C948C000C948C000C948C000C948C0030
:100020000C948C000C948C000C948C000C94AE0BF3
:100030000C948C000C94A40B0C948C000C948C00ED
:100040000C945A0B0C948C000C94280B0C94020BFF
:100050000C948C000C948C000C948C000C948C00F0
:100060000C948C000C948C000000000024002700ED
:100070002A0000000000250028002B0000000008D6
:10008000000201000003040700000000000000005F
:1000900000000000002300260029000404040404DA
:1000A0000404040202020202020303030303030224
:1000B00001020408102040800102040810200102FF
:1000C000040810208000BF0B11241FBECFEFD8E022
:1000D000DEBFCDBF11E0A0E0B1E0ECEDFCE202C07C
:1000E00005900D92AC39B107D9F722E0ACE9B1E047
:1000F00001C01D92AF38B207E1F710E0C4E6D0E0CE
:1001000004C02197FE010E944115C336D107C9F7EB
:100110000E94480C0C946C160C940000E1E7F2E08D
:10012000818991E08927828B838B158A148A1182B9
:1001300010821282168A178A108E118E17860895E1
:10014000AF92BF92CF92DF92EF92FF920F931F93E5
:10015000CF93DF936C017B018B01040F151FEB0123
:100160005E01AE18BF08C017D10759F06991D601DA
:10017000ED91FC910190F081E02DC6010995892B4C
:1001800079F7C501DF91CF911F910F91FF90EF900B
:10019000DF90CF90BF90AF900895FC01538D448DB8
:1001A000252F30E0842F90E0821B930B541710F022
:1001B000CF96089501970895FC01918D828D98172F
:1001C00061F0A28DAE0FBF2FB11D5D968C91928D07
:1001D0009F5F9F73928F90E008958FEF9FEF089538
:1001E000FC01918D828D981731F0828DE80FF11D01
:1001F000858D90E008958FEF9FEF0895FC01918D1C
:10020000228D892F90E0805C9F4F821B91098F7314
:100210009927089586EC91E00E94FE0021E0892B49
:1002200009F420E0822F089580E090E0892B29F0E6
:100230000E940A0181110C9400000895FC01A48D14
:10024000A80FB92FB11DA35ABF4F2C91848D90E0F8
:1002500001968F739927848FA689B7892C93A089DB
:10026000B1898C91837080648C93938D848D981365
:1002700006C00288F389E02D80818F7D80830895F8
:10028000EF92FF920F931F93CF93DF93EC0181E0E6
:10029000888F9B8D8C8D98131AC0E889F98980818D
:1002A00085FF15C09FB7F894EE89FF896083E889C0
:1002B000F98980818370806480839FBF81E090E0B2
:1002C000DF91CF911F910F91FF90EF900895F62E3F
:1002D0000B8D10E00F5F1F4F0F731127E02E8C8DD9
:1002E0008E110CC00FB607FCFACFE889F98980811E
:1002F00085FFF5CFCE010E941E01F1CFEB8DEC0FF3
:10030000FD2FF11DE35AFF4FF0829FB7F8940B8F3A
:10031000EA89FB8980818062CFCFCF93DF93EC01A4
:10032000888D8823B9F0AA89BB89E889F9898C91DD
:1003300085FD03C0808186FD0DC00FB607FCF7CF99
:100340008C9185FFF2CF808185FFEDCFCE010E9499
:100350001E01E9CFDF91CF910895833081F028F419
:10036000813099F08230A9F008958730A9F0883063
:10037000C9F08430B1F4809180008F7D03C08091FA
:1003800080008F7780938000089584B58F7784BD37
:10039000089584B58F7DFBCF8091B0008F778093D7
:1003A000B00008958091B0008F7DF9CFCF93DF9397
:1003B000282F30E0F901E458FF4F8491F901E0550E
:1003C000FF4FD491F901E556FF4FC491CC23A1F022
:1003D00081110E94AD01EC2FF0E0EE0FFF1FEF56F0
:1003E000FF4FA591B491EC91ED2381E090E009F4E9
:1003F00080E0DF91CF91089580E090E0FACF1F93E5
:10040000CF93DF93282F30E0F901E458FF4F849118
:10041000F901E055FF4FD491F901E556FF4FC49122
:10042000CC23A9F0162F81110E94AD01EC2FF0E032
:10043000EE0FFF1FEE58FF4FA591B4918FB7F894C0
:10044000EC91111108C0D095DE23DC938FBFDF91B2
:10045000CF911F910895DE2BF8CFCF93DF9390E0DB
:10046000FC01E055FF4F249185569F4FFC0184917C
:100470008823C9F090E0880F991FFC01E859FF4FCD
:10048000A591B491FC01EE58FF4FC591D491611133
:100490000DC09FB7F8948C91209582238C9388810E
:1004A000282328839FBFDF91CF910895623051F4B4
:1004B0009FB7F8943C91822F809583238C93E88199
:1004C0002E2BEFCF8FB7F894EC912E2B2C938FBF60
:1004D000EACF1F93CF93DF93182FEB0161E00E94C7
:1004E0002D02209739F460E0812FDF91CF911F9189
:1004F0000C94FF01CF3FD10511F461E0F5CFE12F5E
:10050000F0E0E458FF4FE491E33031F140F4E130A2
:10051000B1F0E230E1F0C038D1057CF7E4CFE7304C
:1005200029F1E83059F1E430B1F780918000806220
:1005300080938000D0938B00C0938A0004C084B560
:10054000806884BDC7BDDF91CF911F91089584B5A8
:10055000806284BDC8BDF7CF8091800080688093A1
:100560008000D0938900C0938800EDCF8091B000C7
:1005700080688093B000C093B300E5CF8091B00055
:1005800080628093B000C093B400DDCF70E060E083
:1005900083E00C9469023FB7F8948091A601909192
:1005A000A701A091A801B091A90126B5A89B05C0FB
:1005B0002F3F19F00196A11DB11D3FBFBA2FA92FE2
:1005C000982F8827BC01CD01620F711D811D911DDF
:1005D00042E0660F771F881F991F4A95D1F708954B
:1005E0008F929F92AF92BF92CF92DF92EF92FF9243
:1005F0006B017C010E94CB024B015C01C114D10450
:10060000E104F104B9F00E94CB02681979098A0962
:100610009B09683E73408105910580F321E0C21A71
:10062000D108E108F10888EE880E83E0981EA11C2D
:10063000B11CE4CFFF90EF90DF90CF90BF90AF90D0
:100640009F908F9008951F93CF93DF93D82F0E9490
:10065000D60121E0892B09F420E0C0E0122F61E0EF
:1006600070E080E090E00E94F0028D2F0E94D601A1
:1006700021E0892B09F420E02113EFCFCF5FC530B3
:1006800069F7822FDF91CF911F91089561E080E19A
:100690000E94FF0187E00E9423038111FBCF60E0ED
:1006A00080E10C94FF0161E080E10E94FF0187E09E
:1006B0000E9423038823D9F360E080E10C94FF01BA
:1006C00083E28093B00089E08093B10080EE809354
:1006D000B3008FE68093B4006FEF70E083E00E9478
:1006E00069026FE070E080E090E00E94F00263EC4D
:1006F00070E083E00C9469021092C5011092C4016D
:100700000E94460362E370E080E090E00E94F00205
:100710000E94C6021092C301089561E082E10E9426
:100720002D0260E082E10E94FF0161E084E00E940E
:10073000FF0161E070E080E090E00E94F00260E084
:1007400084E00E94FF0162E082E10C942D022FB749
:10075000F8946091A2017091A3018091A4019091FD
:10076000A5012FBF089560E08DE00E94FF0160E0C9
:1007700081E10C94FF01FC01808191818038F2E0DD
:100780009F0739F486E990E090932201809321013C
:1007900008958D37910519F480E991E0F5CF8039FE
:1007A0009140B1F788EC90E0EFCFE1E8F0E0808194
:1007B0008B7F808380818D7F808380818E7F80830B
:1007C000089561E089E00E942D0261E082E00E94CC
:1007D0002D0261E086E00E942D0260E089E00E9427
:1007E000FF0161E082E00E94FF0161E086E00E947B
:1007F000FF01F89487E286BB1092800087E0809327
:1008000081001092820010928500109284007894EA
:100810000895DC012C911196ED91FC91F894818161
:10082000822B81839281322F30959323928387E0AC
:1008300090E00197F1F781818323818383E290E047
:100840000197F1F790817894EFECF0E03197F1F7B0
:10085000922381E009F480E00895EF92FF920F93D4
:100860001F93CF93DF937C0108E010E0C0E0D1E05C
:10087000C7010E9409048111CD2BDD0F0150110920
:10088000B9F78C2FDF91CF911F910F91FF90EF90CF
:100890000895FC0190810180F281E02D292F20959F
:1008A00060FF14C0F8948281822382838181892B26
:1008B0008183A3E2B0E01197F1F78281982B9283B4
:1008C000789487ED90E00197F1F70895F89482818C
:1008D000822382838181892B8183AFEFB0E01197DE
:1008E000F1F78281982B928378948FE090E0EBCFA0
:1008F000DF92EF92FF920F931F93CF93DF93EC0160
:10090000D62EE42E08E010E0FF24F39461E08D2D54
:100910008F2109F460E0CE010E944904FF0C0150D0
:100920001109A1F7E11010C0F894E981FA819181D1
:100930008881809589238183E981FA8192818881E8
:100940008095892382837894DF91CF911F910F91B5
:10095000FF90EF90DF9008951F93CF93DF93EC010A
:10096000162F41E06AE50E94780441E0612FCE0134
:100970000E947804612F609541E0CE010E947804C6
:10098000CE010E942D048A3A29F4CE010E942D0442
:1009900091E0181390E0892FDF91CF911F91089576
:1009A000EF92FF920F931F93CF93DF938C017B0104
:1009B00040E065E50E947804E70188E0E80EF11C5C
:1009C000699140E0C8010E947804CE15DF05C1F7A7
:1009D000DF91CF911F910F91FF90EF900895FC014F
:1009E00090810180F281E02DF8948181292F20955A
:1009F0008223818378943DE743E050E0315029F130
:100A0000DA011197F1F780818923C1F3F89482818B
:100A1000822382838181892B81837894ABE7B7E03D
:100A20001197F1F7F894818182238183A3E1B1E0EA
:100A30001197F1F78081982381E009F080E07894A4
:100A4000E3E6F6E03197F1F7089580E008950F931B
:100A50001F93CF93DF93EC018B010E94EF04B80149
:100A6000CE010E94D00441E065EFCE010E947804DF
:100A7000CE01DF91CF911F910F910C942D04FF9225
:100A80000F931F93CF93DF93EC01F62E8C010C5F35
:100A90001F4FB8018A819B810E9427050A80DB8154
:100AA000C02DCE010E94EF04B801CE010E94D004F7
:100AB00081E090E0A0E0B0E004C0880F991FAA1F79
:100AC000BB1FFA94D2F7682F6095CE01DF91CF91CA
:100AD0001F910F91FF900C94AC040F931F93CF9331
:100AE000DF93442331F0DF91CF911F910F910C944C
:100AF0003F05EC018C010C5F1F4FB8018A819B817F
:100B00000E9427050A80DB81C02DCE010E94EF04E0
:100B1000B801CE010E94D0046FEFCE01DF91CF91DA
:100B20001F910F910C94AC04EF92FF921F93CF93FF
:100B3000DF937C01162FC1E0D0E068EC70E080E02C
:100B400090E00E94F002612F85E692E00E943F054E
:100B500068EC70E080E090E00E94F00240E0612FDD
:100B600085E692E00E946D05CE15DF0534F0DF9139
:100B7000CF911F91FF90EF900895C2E0D0E0DDCFBC
:100B80000F931F93CF93DF93EC018B0188810E9419
:100B9000D601892B79F189818823B9F08A819B81DB
:100BA000BE016C5F7F4F01151105B1F40E9427054E
:100BB000982F817091FD826092FD846093FD886022
:100BC000DF91CF911F910F91089588810E94D601E6
:100BD000019721F788ECF4CF0130110529F40E9428
:100BE000270582958170ECCF0E94270585FB882719
:100BF00080F9E6CF84E6E4CF61E070E00C94C005B4
:100C0000FC0101900020E9F73197AF01481B590B17
:100C1000BC0186EC91E00C94A0008F929F92AF9261
:100C2000BF920F931F93CF93DF93CDB7DEB7A197FA
:100C30000FB6F894DEBF0FBECDBF19A2423008F444
:100C40004AE08E010F5D1F4F842E912CB12CA12CF8
:100C5000A50194010E941F15E62FB901CA01EA30CF
:100C6000F4F4E05DD801EE938D01232B242B252B8A
:100C700079F790E080E0109719F0CD010E9400060E
:100C8000A1960FB6F894DEBF0FBECDBFDF91CF9116
:100C90001F910F91BF90AF909F908F900895E95C46
:100CA000E1CFCF93DF930E940006EC018BE391E04C
:100CB0000E9400068C0F9D1FDF91CF9108954F92E7
:100CC0005F926F927F928F929F92AF92BF92CF92DC
:100CD000DF92EF92FF921F93CF93DF9300D000D06B
:100CE00000D0CDB7DEB76C012B01142F61E0842F4B
:100CF0000E942D020E94A703812C912C54011E8278
:100D00001D82052C000C66087708A3019201260FAE
:100D1000371F481F591F29833A834B835C83F12C6B
:100D2000E12C0E94A70329813A814B815C816217E3
:100D300073078407950708F50E94A7032B013C0160
:100D4000DC01CB0188199909AA09BB098C159D05FD
:100D5000AE05BF0530F34D815E8181E048275E839B
:100D60004D834D814170612F8091630290916402A7
:100D70000E946D0553014201D4CF26960FB6F89418
:100D8000DEBF0FBECDBFDF91CF911F91FF90EF90DF
:100D9000DF90CF90BF90AF909F908F907F906F909B
:100DA0005F904F90089546E050E064EC79E088EE63
:100DB00093E00E945F0646E050E064EC79E088E54D
:100DC00092E00E945F0646E050E064EC79E088EC37
:100DD00090E00E945F0646E050E062EE74E080E53D
:100DE00090E00E945F0647E050E062EE74E080E52C
:100DF00090E00C945F068091C1019091C2019C012A
:100E0000285031092230310558F440E067E085E68A
:100E100092E00E946D0566E085E692E00C943F0545
:100E20000A9741F440E066E085E692E00E946D0595
:100E300067E0F2CF0895BF92CF92DF92EF92FF92D8
:100E40000F931F93CF93DF93EC016B011B861D86DD
:100E50001C861A86198618861F821E821D821C8295
:100E60001B820E94EF04811105C01B861D861C8613
:100E700080E02EC040E060EFCE010E94780401E0E7
:100E8000E12CB12C11E0CE010E940904F82ECE0114
:100E90000E94090491E0F91225C0813009F03FC099
:100EA000113418F3BB86B11002C081E08D878B81AD
:100EB0008823D9F22396F601C60108962991219339
:100EC0008E179F07D9F781E0F6019081993281F65C
:100ED000DF91CF911F910F91FF90EF90DF90CF9016
:100EE000BF900895EE2DF0E0F8120FC08B85181713
:100EF000A0F4DE01AE0FBF1F13968C91802379F40E
:100F0000F12C193008F41C87B12EEC0FFD1F8381E2
:100F1000902F9095892383830AC08113F1CFFE011E
:100F2000EE0DF11D8381802B8383FF24F3946F2DBD
:100F3000CE010E9449041F5F000F11F4E39401E009
:100F4000E7E0EE1508F09FCFABCFCF93DF93EC0136
:100F5000BC016C5F7F4F8A819B810E941B07898344
:100F6000DF91CF9108950E9460030E94D50368EC41
:100F700070E080E090E00E94F00280916302909126
:100F800064020E94A507882391F0809163029091EA
:100F900064020E94FC05813051F48091C40190915B
:100FA000C50101969093C5018093C4010895809175
:100FB0006302909164020E94A507811122C0809172
:100FC0006302909164020E94A507811119C064E632
:100FD00070E080E090E00E94F0020E9446036CE224
:100FE00071E080E090E00E94F0020E94C602109240
:100FF000C5011092C4018CE00E94D6010197D9F37B
:10100000089580916302909164020E94FC05811111
:10101000D6CF64E670E080E090E00E94F0020E948B
:10102000460364E670E080E090E00E94F0020E94D7
:10103000C6028CE00E94D601019711F78EE391E081
:101040000E945106F6CF0F931F93CF93DF938C012D
:10105000EB010E946D138883C80101960E946D13F5
:101060008983CE01DF91CF911F910F910895CF9386
:10107000DF9300D0CDB7DEB7BE016F5F7F4F84E155
:1010800090E00E94230889819A810F900F90DF9150
:10109000CF9108958F929F92AF92BF92CF92DF929D
:1010A000FF920F931F93CF93DF9300D0CDB7DEB79E
:1010B00090910001992309F4DDC0F82E0091BC0144
:1010C0001091BD010E9437081127F801EE0FFF1F94
:1010D000EF5FFE4F208131812E394FEF340709F148
:1010E0002F393F4F11F48DE790E09A838983CE0129
:1010F00001960E94BB038091A001811115C00E943E
:10110000E1030E94A70360939C0170939D0180936B
:101110009E0190939F0181E08093A0016FEF7FEF8C
:1011200048C080E892E0E1CF0E94A70380909C0134
:1011300090909D01A0909E01B0909F01681979093F
:101140008A099B09683C71058105910538F3C090B7
:101150008400D09085001092A0010E9424144B01BD
:101160005C01B60190E080E00E9424149B01AC0178
:10117000C501B4010E9483134B015C016091210100
:101180007091220190E080E00E9424149B01AC0148
:10119000C501B4010E94B2140E94F513695F7F4F2C
:1011A0008F4F9F4F6B3DFCEA7F078105910508F04B
:1011B00052C0CB01072E000CAA0BBB0B8F3F2FEFA9
:1011C0009207A207B20709F455C041E0F41272C0B9
:1011D000A0900101B09002019501261B370B37FF4B
:1011E00003C031952195310983E0C82E81E0D82EC6
:1011F000B0E0A0E081E090E0F601419151916F01F3
:10120000461B570B57FF03C0519541955109421793
:10121000530714F49A01DC0101968C30910561F7B3
:10122000F50136976E177F07CCF0209117013091AA
:10123000180120583F4F2617370754F1CD011B974F
:1012400039F560E081E10E94FF018DE00E94D60146
:1012500061E068270CC06EEF7FEFABCF81E10E94A9
:10126000D60161E0682781E10E94FF0160E08DE026
:101270000E94FF010F900F90DF91CF911F910F916E
:10128000FF90DF90CF90BF90AF909F908F90089588
:1012900061E00817190744F060E08017910784F0B7
:1012A0000817190739F760E08DE00E94FF0160E040
:1012B00081E1DECF85369105A105B105A0F361E09E
:1012C0008DE00E94FF0161E0F3CFFF920F931F9327
:1012D000CF93DF93EC01F62E08811981C8010E949B
:1012E0006D13F81621F06F2DC8010E947513CE0101
:1012F000DF91CF911F910F91FF9008951F93CF938E
:10130000DF9300D0CDB7DEB7192F24E130E03A8368
:101310002983682FCE0101960E94650985E190E03E
:101320009A838983612FCE0101960E9465090F90EF
:101330000F90DF91CF911F910895CF93DF9300D04D
:10134000CDB7DEB72DE030E03A832983682FCE0198
:1013500001960E9465090F900F90DF91CF9108953B
:101360008091C1019091C20101969093C201809336
:10137000C1010E949D0983E28093B00089E08093BF
:10138000B10080EE8093B3008FE68093B4006FEFDE
:1013900070E08BE00E9469020E9460030E94530388
:1013A00088E00E94D6010197D9F762E870E08BE0EF
:1013B0000E94690268E770E080E090E00E94F0021D
:1013C0000E94C60262E470E080E090E00E94F002B9
:1013D00061E084E00E94FF0162E070E080E090E064
:1013E0000E94F00270E060E08BE00E94690260E021
:1013F00084E00E94FF0164E170E080E090E00E94E0
:10140000F0020E94600368EC70E080E090E00E94CF
:10141000F0020E94460368EC70E080E090E00E94D9
:10142000F0020C94C6022091BF013091C0012F5FE1
:101430003F4F8091C301811113C08091C1019091F0
:10144000C20101969093C2018093C1013093C00103
:101450002093BF010E949D0981E08093C3010895FC
:101460003093C0012093BF0108958F929F92AF9255
:10147000BF92CF92DF92EF92FF92CF93DF9300D093
:10148000CDB7DEB77C0180916302909164020E9427
:10149000A507882309F47BC08091630290916402C0
:1014A0000E94FC05811173C08091C4019091C50117
:1014B000892B09F06CC08091C1019091C201019605
:1014C0009093C2018093C1010E949D09FA82E98232
:1014D000CE0101960E94BB030E9460030E94530349
:1014E00088E00E94D6010197D9F768E770E080E0B4
:1014F00090E00E94F0020E94E103F89482E086BB33
:10150000209121013091220130938900209388009D
:10151000109285001092840080936F0080916F007C
:10152000816080936F0078940E94A7034B010E9412
:10153000C6028091BE018823E1F31092BE010E9491
:10154000A7036B010E94B3078BE591E00E940006A0
:10155000C818D9080D2C000CEE08FF084AE0C70196
:10156000B601F7FE0DC06DE286EC91E00E944001ED
:1015700066277727CB016C197D098E099F094AE000
:101580000E940D068BE391E00E94000623C080912B
:101590006302909164020E94A507811128C0809186
:1015A0006302909164020E94A507882309F48ECFFC
:1015B0008091C4019091C501181619060CF086CFD0
:1015C00080916302909164020E94FC0581117ECF9C
:1015D0000E947C030F900F90DF91CF91FF90EF90CE
:1015E000DF90CF90BF90AF909F908F9008958091A3
:1015F0006302909164020E94FC05813081F60E9492
:10160000130A64CF1F920F920FB60F9211242F93DB
:101610003F934F935F936F937F938F939F93AF937A
:10162000BF93EF93FF9386EC91E00E941E01FF9120
:10163000EF91BF91AF919F918F917F916F915F914A
:101640004F913F912F910F900FBE0F901F901895C3
:101650001F920F920FB60F9211242F938F939F9387
:10166000EF93FF93E091D601F091D7018081E09153
:10167000DC01F091DD0182FD1BC090818091DF01D2
:101680008F5F8F732091E001821741F0E091DF01BD
:10169000F0E0EA53FE4F958F8093DF01FF91EF91C9
:1016A0009F918F912F910F900FBE0F901F901895C3
:1016B0008081F4CF1F920F920FB60F9211242F93B7
:1016C0003F938F939F93AF93BF938091A20190918B
:1016D000A301A091A401B091A5013091A10123E043
:1016E000230F2D3758F50196A11DB11D2093A1019F
:1016F0008093A2019093A301A093A401B093A501AC
:101700008091A6019091A701A091A801B091A90193
:101710000196A11DB11D8093A6019093A701A093EE
:10172000A801B093A901BF91AF919F918F913F9173
:101730002F910F900FBE0F901F90189526E8230F42
:101740000296A11DB11DD2CF1F920F920FB60F921C
:1017500011240F900FBE0F901F9018951F920F929B
:101760000FB60F9211248F9310926F0081E0809337
:10177000BE018F910F900FBE0F901F901895CF93C1
:10178000DF93E6ECF1E01382128288EE93E0A0E0B2
:10179000B0E084839583A683B7832DE231E0318363
:1017A000208325EC30E03587248724EC30E0378730
:1017B000268720EC30E0318B208B21EC30E0338B1E
:1017C000228B22EC30E0358B248B26EC30E0378BFB
:1017D000268B118E128E138E148EE1E7F2E02CE030
:1017E000208B21E0218B128A138A158A148A118298
:1017F00010821282168A178A108E118E44E150E0F0
:1018000060E070E043835483658376834AEF50E061
:1018100060E070E047835087618772878387948791
:10182000A587B687178660E08CE00E942D028EE0C7
:1018300090E00E944715EC0160E082E10E942D02D9
:10184000E2ECF0E0E491E883EDEAF0E0E491F0E02E
:10185000EE0FFF1FEF56FF4F859194919A83898376
:101860001B861D861C861A86198618861F821E8274
:101870001D821C821B82E5E6F2E0D383C28382E1F3
:101880008083F0936402E0936302DF91CF91089527
:10189000CF93DF9300D0CDB7DEB7789484B5826064
:1018A00084BD84B5816084BD85B5826085BD85B504
:1018B000816085BD80916E00816080936E00109282
:1018C00081008091810082608093810080918100FD
:1018D000816080938100809180008160809380008E
:1018E0008091B10084608093B1008091B0008160EC
:1018F0008093B00080917A00846080937A00809118
:101900007A00826080937A0080917A00816080936F
:101910007A0080917A00806880937A001092C100EA
:10192000E091D601F091D70182E08083E091D2016D
:10193000F091D3011082E091D401F091D5018FECA8
:1019400080831092DE01E091DA01F091DB0186E004
:101950008083E091D801F091D901808180618083FA
:10196000E091D801F091D901808188608083E09175
:10197000D801F091D901808180688083E091D801FD
:10198000F091D90180818F7D808369E672E080913A
:101990006702909168020E941B0780936602809103
:1019A0006702909168020E94EF0440E066E980912E
:1019B0006702909168020E94780409E612E081E7CC
:1019C000E82E82E0F82EF80161918F0140E08091CD
:1019D0006702909168020E947804E016F10699F778
:1019E00040E06CE380916702909168020E94780465
:1019F00080916702909168020E94EF0470E060E0BD
:101A000085E692E00E94C0051A8219826FEFCE012E
:101A100001960E94650981E090E09A8389836FEFC7
:101A2000CE0101960E94650980E892E00E947E093D
:101A30008FE090E0A0E0B0E0809374029093750294
:101A4000A0937602B09377021092780210927902F6
:101A500010927A0210927B028AE090E0A0E0B0E05F
:101A600080937C0290937D02A0937E02B0937F02CC
:101A700061E083E00E942D0261E08BE00E942D0274
:101A800061E084E00E942D0261E080E10E942D026D
:101A900061E08DE00E942D0261E081E10E942D0253
:101AA00060E083E00E94FF0160E08BE00E94FF01A4
:101AB00060E084E00E94FF0160E080E10E94FF019D
:101AC00060E08DE00E94FF0160E081E10E94FF0183
:101AD00062E082E10E942D0262E088E00E942D0215
:101AE00062E087E00E942D0262E08FE00E942D02FA
:101AF00062E08EE00E942D0260E08CE00E942D02E8
:101B000060E08AE00E942D0262E083E10E942D02E3
:101B10000E94FB068091AA019091AB0101969093DF
:101B2000AB018093AA0187E00E94D601892B11F0B6
:101B30000E944603B0E08B2EB0E09B2E33243394FA
:101B40008FE00E94D601892B09F0BEC08EE00E9472
:101B5000D601892B09F0B8C00E94A7032B013C01D4
:101B6000809181020E94D6019C0181E021153105FE
:101B700009F480E08093830280918202811106C083
:101B800091E0232B09F090E09093830280918302EF
:101B900090918402891741F0409287025092880206
:101BA0006092890270928A02409187025091880265
:101BB0006091890270918A0293018201041B150BC6
:101BC000260B370BB901A801009174021091750220
:101BD0002091760230917702041715072607370700
:101BE00094F420917302281771F080937302882374
:101BF00051F020918502309186022F5F3F4F309344
:101C0000860220938502891302C01092800280937D
:101C1000840280917302811126C080917802909194
:101C20007902A0917A02B0917B0284179507A607EA
:101C3000B7070CF049C0809185029091860290937D
:101C40007202809371021092860210928502892B93
:101C5000D9F1309280028EE691E00E945106809187
:101C60007302882389F18091870290918802A09164
:101C70008902B0918A02481A590A6A0A7B0A0091BD
:101C80007C0210917D0220917E0230917F0204152A
:101C9000150526053705C4F48091850290918602CA
:101CA00022273327281B390B3093720220937102AD
:101CB0001092860210928502892B31F030928002B8
:101CC0008BE791E00E945106E091BC01F091BD01CB
:101CD000EE0FFF1FEF5FFE4F808191818E399F4F86
:101CE00049F580E00E944A08809171029091720249
:101CF0008F3F980719F018161906E4F42091B501E2
:101D00002223C1F02091BA01211102C0029751F49F
:101D100060E081E10E94FF0160E08DE00E94FF0130
:101D20000E94D3060E948E0080E892E00E94350A4D
:101D30000E94FB06E091BC01F091BD01EE0FFF1F78
:101D4000EF5FFE4F808191818F399F4F49F580E091
:101D50000E944A0880917102909172028F3F980709
:101D600019F018161906E4F42091B5012223C1F0E8
:101D70002091BA01211102C0029751F460E081E183
:101D80000E94FF0160E08DE00E94FF010E94D306E7
:101D90000E948E008DE790E00E94350A0E94FB06AB
:101DA0008091BC019091BD0184369105B9F485E61E
:101DB00092E00E94A5078111E3C080917102909189
:101DC00072028F3F980721F08130910509F0AAC077
:101DD0000E94B0090E948E000E94FB06A090BC01E8
:101DE000B090BD01FCE0AF16B10408F0C9C081E0BD
:101DF0000E944A0880917102909172028F3F980769
:101E000021F0181619060CF0BBC02091BA0121115F
:101E100002C0029751F460E081E10E94FF0160E09E
:101E20008DE00E94FF010E94D3060E948E008091E7
:101E30006302909164020E94A507882309F47BC085
:101E400080916302909164020E94FC05811173C02D
:101E50008091C4019091C501892B09F06CC08091DB
:101E6000C1019091C20101969093C2018093C1017A
:101E70000E949D090E94600364E670E080E090E0AB
:101E80000E94F0020E94530388E00E94D60101974D
:101E9000D9F768E770E080E090E00E94F002F50179
:101EA000EE0FFF1FEF5FFE4F0081118126E0A216AB
:101EB000B1040CF0CFC1095F1F4F0E94C6020E94FF
:101EC000A7032B013C01012E000C220B330B6801F0
:101ED0007901C40CD51CE61CF71C0E94A703C6168A
:101EE000D706E806F906C8F70E94A7036B017C0134
:101EF00033E0A316B10414F00E948D030E94B307CF
:101F000086E891E00E940006C701B60164197509D0
:101F1000860997094AE00E940D068BE391E00E9432
:101F200000062CC0029761F560E177E280E090E066
:101F30000E94F0024DCF80916302909164020E9452
:101F4000A50781117BC180916302909164020E9478
:101F5000A507882309F48ECF8091C4019091C50113
:101F6000181619060CF086CF8091630290916402D6
:101F70000E94FC0581117ECF0E947C030E94FB061B
:101F80008FE00E94D601019759F58EE00E94D6019C
:101F9000892B31F51092C2011092C10190E080E0CE
:101FA0000E949D090E94FB060091B8011091B901A1
:101FB0000115110529F066E085E692E00E943F05D3
:101FC0000E9460030E9453030E9446030E94C602BF
:101FD000012B31F040E066E085E692E00E946D055D
:101FE00070E060E085E692E00E94C005082F10E0F6
:101FF0001093BD010093BC0185E692E00E94FC05B0
:1020000091E0811101C090E09093BB0162E070E02B
:1020100085E692E00E94C00591E0811101C090E048
:102020009093BA018091B8019091B9019093B70152
:102030008093B60185E692E00E94A507A82EB12CF8
:10204000B092B901A092B801BE016F5F7F4F8DE0E1
:1020500090E00E94230869807A8073947092C20194
:102060006092C1018FE00E94D601892BA1F48EE01D
:102070000E94D6018130910571F4E8E06E1671047A
:1020800054F02091AC013091AD01232B21F49093B9
:10209000AD018093AC01003111050CF01FC185E644
:1020A00092E00E94A507882309F418C18CE00E94E1
:1020B000D601019709F412C18AE00E94D601019766
:1020C00009F40CC170E060E085E692E00E94C00572
:1020D000082F10E01093BD010093BC0185E692E04B
:1020E0000E94FC05782E81E0711001C080E0809391
:1020F000BB0162E070E085E692E00E94C00591E0DD
:10210000811101C090E09093BA01AB28C9F1980108
:102110002E5031092230310598F5882389F1772036
:1021200079F10E9437089C019093B4018093B30128
:10213000000F111FF801EF5FFE4F808191818F39F1
:102140009F4F09F48AC080E892E028173907C1F050
:102150009093AF018093AE010E947E090E94B30369
:102160008091AE019091AF018D37910509F078C053
:1021700067E070E081E090E00E9494050E94FB0619
:102180000091BC011091BD01B090BA018091B201E3
:102190008017110609F47EC2BB2021F08091BB019B
:1021A000811198C20E94B3033801660C771CF301B9
:1021B000EF5FFE4F808191818E399F4F31F466E051
:1021C00070E082E090E00E949405F301EF5FFE4F23
:1021D000808191818F399F4F31F466E070E081E01A
:1021E00090E00E9494050E94B303BB2009F441C013
:1021F0008091BB018823E9F15801AA0CBB1CF501B1
:10220000EF5FFE4F808191818C399F4F31F466E002
:1022100070E081E090E00E949405F501EF5FFE4FD1
:10222000808191818D399F4F31F467E070E081E0CA
:1022300090E00E9494050E94FB064EC080916302CC
:10224000909164020E94FC05813009F07CCE0E94CE
:10225000130A10CE0A5F1F4F30CE8DE790E075CF86
:102260008038924009F08ACF67E070E082E090E029
:1022700083CF3801660C771CF301EF5FFE4F80813E
:1022800091818C399F4F61F466E070E081E090E0CD
:102290000E94940567E070E081E090E00E94940560
:1022A000F301EF5FFE4F808191818D399F4F61F483
:1022B00067E070E081E090E00E94940566E070E0E5
:1022C00081E090E00E9494050E94FB06B11094CF3B
:1022D0008091BB01811190CF0093B2018091BC012C
:1022E0009091BD01883C910511F585E692E00E9430
:1022F000A50781111CC00E9437088C019093B4017E
:102300008093B30180E00E944A088091710290910D
:1023100072028F3F980721F08130910509F0CEC1FC
:102320001092BB01C8010E94350A0E948E000091E4
:10233000BC011091BD01000F111FF801EF5FFE4FAE
:10234000808191818D399F4F21F585E692E00E9431
:10235000A5078823F1F08091BA018823D1F08091FC
:10236000BB018823B1F080910001882391F0109285
:1023700000010E94B30361E08DE00E94FF0164E66A
:1023800070E080E090E00E94F00260E08DE00E944A
:10239000FF018CE00E94D601019709F078C0F80196
:1023A000EF5FFE4F808191818D399F4F09F06FC0A3
:1023B0008091B501882309F46AC00E94D5030E9468
:1023C000B3030E948E008091C1019091C2010196D9
:1023D0009093C2018093C1010E949D090E946003F5
:1023E0000E94530388E00E94D6010197D9F768E262
:1023F00070E080E090E00E94F00262E070E0809186
:102400006302909164020E94C005813029F46FEF4D
:1024100070E08BE00E9469020E94C60262E070E0F8
:1024200080916302909164020E94C005813029F47A
:1024300062E870E08BE00E9469028CE00E94D601A5
:102440000197D9F30E948D030E94600362E070E05F
:1024500080916302909164020E94C005813029F44A
:1024600070E060E08BE00E94690268EC70E080E060
:1024700090E00E94F0020E94460368EC70E080E069
:1024800090E00E94F0020E94C6020E94FB060091AA
:10249000BC011091BD01000F111FF801EF5FFE4F4D
:1024A000808191818C399F4F21F585E692E00E94D1
:1024B000A5078823F1F08091BA018823D1F080919B
:1024C000BB018823B1F080910001811112C03092CC
:1024D00000010E94B30361E081E10E94FF0164E614
:1024E00070E080E090E00E94F00260E081E10E94F4
:1024F000FF018CE00E94D601019709F055C0F80158
:10250000EF5FFE4F808191818C399F4F09F04CC065
:102510008091B501882309F447C00E94D5030E9429
:10252000B3030E948E008091C1019091C201019677
:102530009093C2018093C1010E949D090E94600393
:102540000E94530388E00E9423038823D9F368E2A2
:1025500070E080E090E00E94F0028AE00E94D601E4
:102560000197D9F30E94C6028CE00E94D601892B04
:10257000D9F38CE00E94D601019721F40E948D03CB
:102580000E94600368EC70E080E090E00E94F0023E
:102590000E94460368EC70E080E090E00E94F00248
:1025A0000E94C6020E94FB06A090B801B090B9013B
:1025B000A114B10409F453C08091B6019091B70100
:1025C000892B09F04CC070E060E085E692E00E9443
:1025D000C00590E09093BD018093BC0185E692E038
:1025E0000E94FC05182F81E0111101C080E080934A
:1025F000BB0162E070E085E692E00E94C00591E0D8
:10260000811101C090E09093BA01882311F011115B
:1026100026C00E9437088C019093B4018093B301C7
:102620000E94B30366E070E082E090E0003822E0B0
:10263000120739F00D37110561F466E070E081E0B2
:1026400090E00E94940564EF71E080E090E00E94C9
:10265000F002B092B701A092B6010E94FB0683E19E
:102660000E94D60121E0892B09F420E02093B501D6
:1026700084E00E94D6018AE00E94D6018114910470
:1026800009F45ECA0E940A01882309F459CA0E940B
:10269000000056CA2091BB018091B10190E028173B
:1026A000190639F48091B00190E0B816190609F4C2
:1026B00015CE2093B101B092B00110CE029709F06F
:1026C00036CE1092BB0160E177E280E090E00E949C
:1026D000F00228CE0E94B3038BCDF999FECF92BDB4
:1026E00081BDF89A992780B50895262FF999FECFD4
:1026F0001FBA92BD81BD20BD0FB6F894FA9AF99A1F
:102700000FBE019608950E9497130C9478140E94AE
:10271000711458F00E946A1440F029F45F3F29F0C8
:102720000C94611451110C94AC140C9467140E9415
:10273000891468F39923B1F3552391F3951B550B35
:10274000BB27AA2762177307840738F09F5F5F4F84
:10275000220F331F441FAA1FA9F335D00E2E3AF0C3
:10276000E0E832D091505040E695001CCAF72BD0DB
:10277000FE2F29D0660F771F881FBB1F261737072C
:102780004807AB07B0E809F0BB0B802DBF01FF275E
:1027900093585F4F3AF09E3F510578F00C946114C6
:1027A0000C94AC145F3FE4F3983ED4F38695779590
:1027B0006795B795F7959F5FC9F7880F911D969517
:1027C000879597F90895E1E0660F771F881FBB1F73
:1027D000621773078407BA0720F0621B730B840B20
:1027E000BA0BEE1F88F7E09508950E94911488F0C7
:1027F0009F5798F0B92F9927B751B0F0E1F0660FC5
:10280000771F881F991F1AF0BA95C9F714C0B13005
:1028100091F00E94AB14B1E008950C94AB14672FB3
:10282000782F8827B85F39F0B93FCCF38695779534
:102830006795B395D9F73EF490958095709561951D
:102840007F4F8F4F9F4F0895E89409C097FB3EF448
:1028500090958095709561957F4F8F4F9F4F9923ED
:10286000A9F0F92F96E9BB279395F695879577956B
:102870006795B795F111F8CFFAF4BB0F11F460FF2B
:102880001BC06F5F7F4F8F4F9F4F16C0882311F083
:1028900096E911C0772321F09EE8872F762F05C097
:1028A000662371F096E8862F70E060E02AF09A9532
:1028B000660F771F881FDAF7880F9695879597F927
:1028C000089597F99F6780E870E060E008959FEFB2
:1028D00080EC089500240A941616170618060906B7
:1028E000089500240A941216130614060506089586
:1028F000092E0394000C11F4882352F0BB0F40F40E
:10290000BF2B11F460FF04C06F5F7F4F8F4F9F4F4D
:10291000089557FD9058440F551F59F05F3F71F0CF
:102920004795880F97FB991F61F09F3F79F0879536
:102930000895121613061406551FF2CF4695F1DFBF
:1029400008C0161617061806991FF1CF869571054F
:10295000610508940895E894BB2766277727CB0183
:1029600097F908950E94C5140C9478140E946A1473
:1029700038F00E94711420F0952311F00C9461142A
:102980000C94671411240C94AC140E94891470F3F5
:10299000959FC1F3950F50E0551F629FF001729F04
:1029A000BB27F00DB11D639FAA27F00DB11DAA1F13
:1029B000649F6627B00DA11D661F829F2227B00D60
:1029C000A11D621F739FB00DA11D621F839FA00DEB
:1029D000611D221F749F3327A00D611D231F849F3B
:1029E000600D211D822F762F6A2F11249F57504092
:1029F0009AF0F1F088234AF0EE0FFF1FBB1F661F0D
:102A0000771F881F91505040A9F79E3F510580F0D5
:102A10000C9461140C94AC145F3FE4F3983ED4F32F
:102A2000869577956795B795F795E7959F5FC1F779
:102A3000FE2B880F911D9695879597F90895A1E231
:102A40001A2EAA1BBB1BFD010DC0AA1FBB1FEE1F28
:102A5000FF1FA217B307E407F50720F0A21BB30B73
:102A6000E40BF50B661F771F881F991F1A9469F7EF
:102A700060957095809590959B01AC01BD01CF014B
:102A80000895EE0FFF1F0590F491E02D09940F9328
:102A90001F93CF93DF938230910510F482E090E092
:102AA000E0918D02F0918E0230E020E0B0E0A0E0F5
:102AB000309799F42115310509F44AC0281B390BC8
:102AC00024303105D8F58A819B816115710589F122
:102AD000FB0193838283FE0111C0408151810281F9
:102AE000138148175907E0F04817590799F41097D0
:102AF00061F012960C93129713961C933296CF01A5
:102B0000DF91CF911F910F91089500938D02109343
:102B10008E02F4CF2115310551F04217530738F0DA
:102B2000A901DB019A01BD01DF01F801C1CFEF016D
:102B3000F9CF90938E0280938D02CDCFFE01E20FEC
:102B4000F31F819391932250310939832883D7CF82
:102B500020918B0230918C02232B41F4209125018E
:102B60003091260130938C0220938B022091230117
:102B7000309124012115310541F42DB73EB7409124
:102B8000270150912801241B350BE0918B02F09115
:102B90008C02E217F307A0F42E1B3F0B281739070E
:102BA00078F0AC014E5F5F4F2417350748F04E0FA9
:102BB0005F1F50938C0240938B02819391939FCF20
:102BC000F0E0E0E09CCFCF93DF930097E9F0FC01C9
:102BD000329713821282A0918D02B0918E02ED0184
:102BE00030E020E01097A1F420813181820F931F03
:102BF00020918B0230918C022817390709F061C0AF
:102C0000F0938C02E0938B02DF91CF910895EA015B
:102C1000CE17DF07E8F54A815B819E01411551051A
:102C2000B1F7E901FB83EA8349915991C40FD51F9C
:102C3000EC17FD0761F4808191810296840F951F46
:102C4000E90199838883828193819B838A83F0E061
:102C5000E0E012968D919C9113970097B9F52D9114
:102C60003C911197CD010296820F931F20918B0208
:102C700030918C022817390739F6309751F51092A8
:102C80008E0210928D02B0938C02A0938B02BCCF67
:102C9000D383C28340815181840F951FC817D90700
:102CA00061F44E5F5F4F88819981480F591F5183AE
:102CB00040838A819B81938382832115310509F0AA
:102CC000B0CFF0938E02E0938D029ECFFD01DC0128
:102CD000C0CF13821282D7CFF894FFCF0110001417
:102CE00000170019001E00230037003700A6002E31
:102CF0000158024C049CFF9DFF9EFF9FFF90010026
:102D0000008F028000000000004001A000CD008D77
:102D100001FE00DC00F0000D0A00576169742066B6
:102D20006F7220533120746F20676F206869676865
:102D300020616761696E006D732074616B656E2040
:102D40004155544F3A202020200053696E676C652E
:102D500020436C69636B004C6F6E6720436C696342
:102D60006B006D732074616B656E204D414E554153
:082D70004C3A20202020000055
:107E00001F92CDB7DEB7112484B714BE982F9D7092
:107E100009F0D7D085E08093810082E08093C00094
:107E200088E18093C10086E08093C20082E2809363
:107E3000C4008EE0B1D0259A26E080E39CEF31E0CB
:107E4000909385008093840036BBB09BFECF1D9A33
:107E5000A8952150A9F7812C912C93E0F92EEE24BE
:107E6000E39425E0D22E31E1C32E8AD0813479F417
:107E700087D0898397D08981823811F482E005C048
:107E8000813811F486E001C083E073D06FC0823482
:107E900011F484E103C0853419F485E08BD066C009
:107EA000853541F46DD0882E6BD0912C982A880CA2
:107EB000991C5BC0863521F484E07CD080E0E5CF5E
:107EC000843609F036C05CD05BD0B82E59D0A82ECD
:107ED00000E011E055D0F80181938F01BE12FACF76
:107EE00061D0F5E4AF1201C0FFCFF401F7BEE89511
:107EF00007B600FCFDCFB401A0E0B1E02C911296D2
:107F0000AD0141505109FA01808130E0382BFB016D
:107F10000901E7BEE89511246E5F7F4FBA12EECFDC
:107F2000F401D7BEE89507B600FCFDCFC7BEE895C3
:107F30001DC0843769F424D023D0B82E21D032D08C
:107F40008401F80185918F0114D0BA94D1F70EC045
:107F5000853739F427D08EE10CD085E90AD08FE03F
:107F600094CF813511F488E017D01CD080E101D086
:107F70007CCF9091C00095FFFCCF8093C600089500
:107F80008091C00087FFFCCF8091C00084FD01C0BC
:107F9000A8958091C6000895E0E6F0E098E190830E
:107FA00080830895EDDF803219F088E0F5DFFFCFA0
:107FB00084E1DFCFCF93C82FE3DFC150E9F7CF9142
:0E7FC000F1CF282E80E0E8DFE0E0FF270994F3
:027FFE00020679
:00000001FF
