:100000000C9435000C945D000C945D000C945D0024
:100010000C945D000C945D000C945D000C945D00EC
:100020000C945D000C945D000C945D000C945D00DC
:100030000C945D000C945D000C945D000C945D00CC
:100040000C943B020C945D000C9409020C94E301A7
:100050000C945D000C945D000C945D000C945D00AC
:100060000C945D000C945D007C0311241FBECFEF47
:10007000D8E0DEBFCDBF11E0A0E0B1E0E2E6F7E0FE
:1000800002C005900D92A837B107D9F722E0A8E782
:10009000B1E001C01D92A232B207E1F710E0C5E362
:1000A000D0E004C02197FE010E94A903C433D10708
:1000B000C9F70E9485020C94AF030C940000AF9224
:1000C000BF92CF92DF92EF92FF920F931F93CF9345
:1000D000DF936C017B018B01040F151FEB015E01A7
:1000E000AE18BF08C017D10759F06991D601ED913C
:1000F000FC910190F081E02DC6010995892B79F7DB
:10010000C501DF91CF911F910F91FF90EF90DF908C
:10011000CF90BF90AF900895FC01538D448D252F53
:1001200030E0842F90E0821B930B541710F0CF9691
:10013000089501970895FC01918D828D981761F0C3
:10014000A28DAE0FBF2FB11D5D968C91928D9F5FDA
:100150009F73928F90E008958FEF9FEF0895FC01B9
:10016000918D828D981731F0828DE80FF11D858D6C
:1001700090E008958FEF9FEF0895FC01918D228DFF
:10018000892F90E0805C9F4F821B91098F73992784
:10019000089585E891E00E94BD0021E0892B09F4D3
:1001A00020E0822F089580E090E0892B29F00E94C2
:1001B000C90081110C9400000895FC01A48DA80FC2
:1001C000B92FB11DA35ABF4F2C91848D90E0019699
:1001D0008F739927848FA689B7892C93A089B189B9
:1001E0008C91837080648C93938D848D981306C05A
:1001F0000288F389E02D80818F7D80830895EF92BE
:10020000FF920F931F93CF93DF93EC0181E0888FD0
:100210009B8D8C8D98131AC0E889F989808185FFA0
:1002200015C09FB7F894EE89FF896083E889F98942
:1002300080818370806480839FBF81E090E0DF9144
:10024000CF911F910F91FF90EF900895F62E0B8D97
:1002500010E00F5F1F4F0F731127E02E8C8D8E1152
:100260000CC00FB607FCFACFE889F989808185FFB9
:10027000F5CFCE010E94DD00F1CFEB8DEC0FFD2F0D
:10028000F11DE35AFF4FF0829FB7F8940B8FEA8974
:10029000FB8980818062CFCFCF93DF93EC01888D83
:1002A0008823B9F0AA89BB89E889F9898C9185FDF1
:1002B00003C0808186FD0DC00FB607FCF7CF8C917F
:1002C00085FFF2CF808185FFEDCFCE010E94DD005A
:1002D000E9CFDF91CF9108953FB7F89480917D01E8
:1002E00090917E01A0917F01B091800126B5A89BDD
:1002F00005C02F3F19F00196A11DB11D3FBFBA2FB8
:10030000A92F982F8827BC01CD01620F711D811D77
:10031000911D43E0660F771F881F991F4A95D1F7FB
:100320000895FC0101900020E9F73197AF01481BC7
:10033000590BBC0185E891E00C945F000F931F936B
:10034000CF93DF93CDB7DEB7A1970FB6F894DEBF9A
:100350000FBECDBF482F50E070E060E019A2CE0183
:1003600081968A019B010F7011272227332724E0F1
:1003700076956795579547952A95D1F70A300CF5EC
:10038000005DFC010293CF01411551056105710526
:1003900041F710E000E0EF2B19F00E9491018C0171
:1003A00082E191E00E949101800F911FA1960FB60A
:1003B000F894DEBF0FBECDBFDF91CF911F910F919B
:1003C0000895095CDECF1F920F920FB60F92112491
:1003D0002F933F934F935F936F937F938F939F934D
:1003E000AF93BF93EF93FF9385E891E00E94DD0008
:1003F000FF91EF91BF91AF919F918F917F916F91FD
:100400005F914F913F912F910F900FBE0F901F90D2
:1004100018951F920F920FB60F9211242F938F935E
:100420009F93EF93FF93E0919501F0919601808166
:10043000E0919B01F0919C0182FD1BC09081809115
:100440009E018F5F8F7320919F01821741F0E09191
:100450009E01F0E0EB57FE4F958F80939E01FF9138
:10046000EF919F918F912F910F900FBE0F901F9042
:1004700018958081F4CF1F920F920FB60F9211241E
:100480002F933F938F939F93AF93BF938091790165
:1004900090917A01A0917B01B0917C01309178011B
:1004A00026E0230F2D3758F50296A11DB11D20938C
:1004B00078018093790190937A01A0937B01B093A6
:1004C0007C0180917D0190917E01A0917F01B0918E
:1004D00080010196A11DB11D80937D0190937E0145
:1004E000A0937F01B0938001BF91AF919F918F91B5
:1004F0003F912F910F900FBE0F901F90189529E8F4
:10050000230F0396A11DB11DD2CF789484B58260CC
:1005100084BD84B5816084BD85B5826085BD85B5A7
:10052000816085BD80916E00816080936E00109225
:1005300081008091810082608093810080918100A0
:100540008160809381008091800081608093800031
:100550008091B10084608093B1008091B00081608F
:100560008093B00080917A00846080937A008091BB
:100570007A00826080937A0080917A008E7F8093E7
:100580007A0080917A00806880937A001092C1008E
:10059000E0919501F091960182E08083E0919101D4
:1005A000F09192011082E0919301F091940187E61D
:1005B000808310929D01E0919901F0919A0186E06B
:1005C0008083E0919701F091980180818061808320
:1005D000E0919701F0919801808188608083E0919B
:1005E0009701F0919801808180688083E091970164
:1005F000F091980180818F7D808399E0392E912C34
:10060000812CC2E0D0E001E010E020E0A22E20E04A
:10061000B22EF40130925700849180938401E3E07C
:10062000F0E030925700849180938301FE01309274
:100630005700849180938201F80130925700849191
:100640008093810185E191E00E94910182E191E036
:100650000E9491018CE391E00E94910180918401BC
:100660000E949E018AE491E00E94910180918301A1
:100670000E949E0189E591E00E9491018091820192
:100680000E949E018CE691E00E949101809181017F
:100690000E949E010E946C012B013C0180EAC82E41
:1006A00086E8D82EEE24E394F12C0E946C016419A4
:1006B000750986099709683E734081059105A8F37D
:1006C000F1E0CF1AD108E108F10828EE420E23E04C
:1006D000521E611C711CC114D104E104F10429F7FC
:1006E000A114B10409F495CF0E94C900882309F42C
:1006F00090CF0E9400008DCFE5E8F1E013821282D6
:1007000088EE93E0A0E0B0E084839583A683B7836E
:1007100084E091E09183808385EC90E095878487E5
:1007200084EC90E09787868780EC90E0918B808BBB
:1007300081EC90E0938B828B82EC90E0958B848BA4
:1007400086EC90E0978B868B118E128E138E148E12
:100750000895EE0FFF1F0590F491E02D0994F89491
:02076000FFCFC9
:1007620000000000FF005F008C004C01BD009B00F8
:10077200AF000D0A0057656C636F6D6520746F20C2
:10078200746865204F70746F666C6F77204675735E
:100792006542697473526561646572004C6F774695
:1007A200757365426974733A2000486967684675D3
:1007B2007365426974733A2000457874656E6465A6
:1007C2006446757365426974733A20004C6F636BBB
:0807D200426974733A20000033
:00000001FF
